:020000040800F2
:10000000280D0020ED01000801470008014200080A
:10001000F9460008590E000851530008000000007E
:100020000000000000000000000000000B47000876
:100030001B0F000800000000094700080D470008DA
:10004000070200080702000807020008070200086C
:10005000070200080702000807020008070200085C
:10006000070200080702000807020008610E0008E6
:100070006D0E0008070200080702000807020008CA
:100080000702000800000000950D000807020008A4
:10009000070200080702000807020008250F0008F1
:1000A0000702000885470008070200080702000849
:1000B00007020008070200080702000807020008FC
:1000C00007020008070200080702000807020008EC
:1000D000070200080702000845530008070200084D
:1000E0001D0F0008070200080702000807020008A9
:1000F00007020008070200080702000800000000CD
:1001000000000000070200080000000007020008CD
:1001100007020008000000000702000807020008AC
:10012000070200080702000807020008070200088B
:10013000070200080000000000000000070200089D
:10014000070200080702000800000000000000008D
:10015000000000000000000000000000000000009F
:10016000000000000000000000000000070200087E
:10017000070200080000000000000000000000006E
:10018000000000000702000800000000000000005E
:10019000000000000000000000000000000000005F
:1001A000000000000000000007020008070200082D
:1001B000070200080702000807020008000000000C
:1001C000000000000702000800000000000000001E
:1001D0000702000807020008DFF80CD000F0E6FB79
:1001E00000480047299B0008280D0020064880474A
:1001F00006480047FEE7FEE7FEE7FEE7FEE7FEE70C
:10020000FEE7FEE7FEE7FEE775470008D9010008B4
:100210002DE9F05F0546002092469B46884606463B
:10022000814640241BE0284641464746224600F0CE
:1002300089FA53465A46C01A914110D311461846BE
:10024000224600F016F82D1A67EB01084F462246A9
:100250000120002100F00DF817EB00094E41201E8F
:10026000A4F10104DFDC484631462A464346BDE896
:10027000F09F202A04DB203A00FA02F100207047A8
:100280009140C2F1200320FA03F3194390407047D4
:10029000202A06DBCB17203A41FA02F043EAE0734A
:1002A00006E041FA02F3D040C2F120029140084337
:1002B0001946704740EA01039B0703D009E008C9CB
:1002C000121F08C0042AFAD203E011F8013B00F81B
:1002D000013B521EF9D27047D2B201E000F8012B67
:1002E000491EFBD270470022F6E710B513460A46B6
:1002F00004461946FFF7F0FF204610BD10B5002256
:1003000000E0521C835C8C5CA34201D1002BF8D12D
:10031000D8B2E1B2401A10BD30B504460020034601
:1003200000E05B1C934203D2E05CCD5C401BF8D044
:1003300030BD000070B50F4D00B92868002412E0F0
:100340000A4602E09E4203D0521C1378002BF9D1DA
:10035000DAB2224305D02BB124B1002100F8011BF1
:1003600004E00446401C0678002EE9D128602046AF
:1003700070BD0000000100202DE9FE4F804681EA9B
:100380000300C00F0C46009021F0004123F000450F
:10039000B8EB0200A94105D24046214690461C46D2
:1003A0000B46024623F00040104347D0270DC7F309
:1003B0000A00C3F30A510290401A019040286BDAF8
:1003C000C3F3130040F4801B0098924620B1002331
:1003D000D2EB030A63EB0B0B01985946C0F14002C4
:1003E0005046FFF746FF06460D4650465946019ACD
:1003F000FFF74EFF10EB08006141002487EA11521D
:1004000084EAE7731A4340D0009A62B3019A012A42
:100410004FEA075215DC001B61EB02014FF000426E
:1004200002EA0752CDE90042001C41F58011324634
:100430002B4600F054FA03B0BDE8F08F4046214649
:10044000F9E7001B61EB0201001C41F58013001865
:100450005B412018A2F5001747EB030140EAD57075
:10046000B6196D4111E06D084FEA360645EAC075D0
:100470004FEA0752001B61EB0201001C41F580119D
:1004800049084FEA30000019514132462B4603B06B
:10049000BDE8F04F00F014BA00980122400000239C
:1004A000D0EB020263EBE073009821464FEAE07460
:1004B000B8EB000061EB0401E9E783F000435BE780
:1004C00081F0004158E72DE9FE4F81EA030404F072
:1004D000004421F0004100944FF0000B23F0004352
:1004E00050EA01045ED052EA03045BD0C3F30A541D
:1004F000C1F30A552C44A4F2F3340194A0FB025436
:10050000C1F3130141F48011C3F3130343F48013C7
:1005100001FB024400FB034E840A970A44EA81541B
:1005200047EA8357A4FB076802958D0A05FB0785F8
:100530004FEA932C04FB0C542705029D4FEA065802
:1005400047EA1637B5EB08056EEB070C870E920EDF
:1005500047EA811742EA8312A7FB0201B6EB0B01BF
:1005600064EB00042B0D43EA0C335E1844EB1C5083
:10057000DA465146E7FB0201C5F313044FEA0B3399
:1005800043EA14534FEA0432019C43EA0603A4F100
:100590000C040294009CCDE900B400F0A0F903B073
:1005A000BDE8F08F00200146F9E72DE9F04D81EA22
:1005B000030404F0004B21F0004514464FF0000AFC
:1005C00023F0004150EA050220D054EA01021DD078
:1005D000C5F30A570246C5F31303C1F31300C1F371
:1005E0000A5640F4801543F48013A7EB0608101B4D
:1005F000D64608F2FD3873EB050002D308F1010876
:1006000001E092185B41B8F1000F03DA00200146C7
:10061000BDE8F08D00204FF48011064684460EE0C0
:10062000171B73EB050705D3121B63EB050306438A
:100630004CEA010C49084FEA300092185B4150EA3D
:100640000107EDD152EA030012D082EA040083EAE6
:100650000501084305D0101BAB4106D2012200233F
:1006600006E000224FF0004302E06FF00102531059
:100670001AEB06004CEB085110EB0A0041EB0B01A2
:10068000BDE8F04D00F01CB900F0004230F0004031
:100690000AD0C10D01F56071C0F3160042EA0151A4
:1006A000C208400711437047002001467047000010
:1006B00030B5041E71F1000404DB4FF000444042E9
:1006C00064EB0101141E73F1000405DB1C464FF0BE
:1006D0000043524263EB0403994208BF904230BD8D
:1006E00001F0004330B421F0004150EA010206D08D
:1006F0000A0DA2F56072C1F31301002A02DC30BCBE
:1007000000207047440F44EAC104C100E01830BC27
:1007100000EBC25000F074B830B50B460146002023
:100720002022012409E021FA02F59D4205D303FAB3
:1007300002F5491B04FA02F52844151EA2F1010234
:10074000F1DC30BD202A04DB203A21FA02F000213E
:10075000704721FA02F3D040C2F1200291400843D1
:10076000194670470FB4002300B589B00CA9009159
:100770000B996FF00042CB601E4B06931E4B079304
:100780000423CDE901321D4A089202466B4600203F
:1007900000F0A4F909B05DF814FB70B586B0064608
:1007A0004FF0FF300091CDE90101002015460C46C5
:1007B00004903246694604A8FFF7D4FF0346049824
:1007C000211825B108B10A4600E022462A60002817
:1007D0000DD0002B02DD0098884208D0081B009441
:1007E000CDE901043246694604A8FFF7BBFF06B015
:1007F00070BD0000150D0008330D0008D109000878
:100800000029A8BF7047401C490008BF20F0010024
:10081000704710B4B0FA80FC00FA0CF050EA010402
:1008200004BF10BC704749B1CCF1200421FA04F494
:1008300011FA0CF118BF012121430843A3EB0C016D
:10084000CB1D4FEA00614FEA102042BF002010BCD0
:10085000704700EBC35010440029A4BF10BC704780
:10086000401C490008BF20F0010010BC7047F0B4E4
:1008700000F0004221F0004120F00040CE0DC30DF9
:10088000C1F3160141F40001C0F316004C421546B5
:1008900040F40000761E09E010EB440002D582F01F
:1008A000004240428842F7D840005B1EB342F9DA6A
:1008B00018B1F0BC0021FFF7ACBF2846F0BC704770
:1008C00010B5141E73F1000408DA401C41F1000158
:1008D00092185B411A4301D120F0010010BD2DE9AF
:1008E000F04D92469B4611B1B1FA81F202E0B0FAA6
:1008F00080F220329046FFF7BCFC04460F4640EAE7
:100900000A0041EA0B0153465A46084313D01146E8
:1009100053EA010019D0C8F140025046FFF712FF18
:1009200005460E46504659464246FFF7A2FC08438C
:1009300005D0012004E020463946BDE8F08D0020B6
:10094000054346EAE0762C4337430A986305E40AF8
:10095000A0EB08000022FD0A44EA47540A3002D501
:1009600000200146E9E7010510196941DDE9084564
:1009700000196941BDE8F04DA2E7C1F30A52C1F385
:10098000130140F2FF3341F480119A4202DA002051
:100990000146704740F233439A42A2F2334202DCEE
:1009A0005242FFF7CFBEFFF764BC0000064C074D74
:1009B00006E0E06840F0010394E80700984710342F
:1009C000AC42F6D3FFF70CFCC4AD0008E4AD000860
:1009D000C0B24FF4F05100F0BDB900002DE9FF4F57
:1009E000087881B09946FF2805D0491C2D2804D0ED
:1009F0000024002308E000230BE00124F9E703EBC7
:100A0000830300EB4303491C0878FF28F7D104B1A6
:100A10005B4200200090147801462D2C01D02B2C35
:100A200004D1521C2D2C12D00024009400251678DD
:100A3000FF2E0ED00A24A0FB04C801FB048100276E
:100A400000FB0711521C16EB0C006941EFE7012473
:100A5000EBE7994450EA01020ED00024AA4D264645
:100A6000DFF8A88200F08AF982468B46B9F10000CF
:100A700009DAC9F100071BE001980021C0E9001163
:100A800005B0BDE8F08F074612E0F80707D0224610
:100A90002B4630464146FFF716FD0646884622465D
:100AA0002B4610461946FFF70EFD04460D467F10F3
:100AB000002FEAD1B9F1000F32464346504659465D
:100AC00002DAFFF772FD01E0FFF7FDFC009A0AB1C0
:100AD00081F00041019AC2E90001D1E72DE9FF4F01
:100AE0001F468DB0D7E901464FF0FF382E2045460E
:100AF0004FF000090B90B9696D1C0E988847396A50
:100B0000824688470028F6D1BAF1FF3F0AD024F484
:100B1000D064002E11DDBAF12B0F08D0BAF12D0FE1
:100B20000BD102E0404611B0ABE744F48064B969F0
:100B30006D1C0E9888478246761E6946600501D571
:100B40002D2000E02B208DF8000001F1010B0DF1AC
:100B5000200809E0B9696D1C0E98884782460F98F5
:100B600044F40074761E0560002E02DDBAF1300FE9
:100B7000F0D00B998A453ED144F0800406E00F99ED
:100B8000681CA9F1010944F400740860B9696D1C7E
:100B9000761E0E98884782463028F0D02BE00B99BD
:100BA0008A4505D1200603D444F08004761E18E05F
:100BB000504604F065FD08B30DF11301761E44F4B0
:100BC00000748B4508D2AAF130000BF8010B200607
:100BD00007D5A9F1010003E0200602D409F10100C4
:100BE0008146A00502D50F99681C0860B9696D1C83
:100BF0000E9888478246002ED1DC53E0002E51DD4E
:100C0000BAF1650F02D0BAF1450F4BD1A00549D515
:100C1000B9696D1C24F44074761E0E98884782468C
:100C2000002E0CDD2B2804D0BAF12D0F07D144F48F
:100C30008074B9696D1C0E9888478246761EE0055F
:100C400001D52D2100E02B2108F8011BCDF82C80C7
:100C500021E00DF12901761E44F4007488450CD280
:100C6000AAF1300010F0FF0088F8000002D10B99C3
:100C7000884509D908F1010806E0E00501D52448B6
:100C800001E042F20F708146B9696D1C0E988847E9
:100C900082460F980560002E04DD504604F0F0FCFB
:100CA0000028D6D1F9690E988847FF208BF80000FC
:100CB00088F800000020069007904B466A4608A975
:100CC00006A8FFF78BFEA00502D46FF001002AE70B
:100CD00014F0240F0AD0E00714D1DDE906123868B9
:100CE000031D3B600068C0E900120BE0DDE906016E
:100CF000FFF7F6FC0146E00704D13868021D3A60B0
:100D00000068016028460EE7000024400000F03F24
:100D1000F1D8FFFF426842B1016811F8013B23B1ED
:100D2000521EC0E90012184670470121C160881E9A
:100D3000704742685AB1C368016843B983688B42FF
:100D400005D0491E521CC0E90012002070474FF028
:100D5000FF3070477F2801D9002208E0064A02EBE5
:100D60005002C007127800D1120902F00F020120D0
:100D70009040084070470000D0A900080EB540F22E
:100D8000334202920022CDE900221346FFF7A7FD6D
:100D900003B000BD10B5114C2068C0F3801030B115
:100DA0004020206005F0BCFF08B106F07FFC4FF04A
:100DB000A0410868C0F380224FF4806002B108604F
:100DC0002168C1F3802101B12060054800F0A2FC38
:100DD000BDE81040034800F09DBC00000001005039
:100DE000A40100201002002070B50446006881684C
:100DF0008268C1F3400112F0010F28D039BB81682D
:100E000001F00D01012914D18168124A1140891C99
:100E1000816021680320086001F0ECFA054612E0C9
:100E200001F0E8FA401B02280DD920688068C0074D
:100E300009D0E06D40F01000E065206E40F0010048
:100E40002066012070BD20688068C007E8D10020BE
:100E500070BD0000C0FFFF7F042008F0B1FFFEE777
:100E6000014800F086BF00005C040020014800F04B
:100E700080BF0000BC0400200D4902688A4201D2F4
:100E80000C4901E00B492031D2B21423083AB2FBDD
:100E9000F3F2436C02F01F0223F003031944816450
:100EA00004498031C164012191400165704700000F
:100EB00008040240000802400179074A02EB81025F
:100EC0004265054A4432491E826501F01F02012134
:100ED0009140C16570470000FC08024030B5D0E980
:100EE00013456560446D14B1D0E91645656090F80E
:100EF000444004F01F050124AC40056C6C6004689C
:100F000063608368102B036803D099600068C26037
:100F100030BD9A600068C16030BD70474FF480609A
:100F200001F038B94FF4807001F034B9062008F0B0
:100F300047FF72B6FEE70000144A117F14480129EA
:100F400001D003290FD1036823F400730360036801
:100F500043F400630360036823F4006303600368E1
:100F600043F400730360022901D003290BD1016807
:100F700041F480510160016821F4805101600168F1
:100F800041F4806101600020107770471C00002050
:100F900000200240C107054803D0416941F0040127
:100FA0004161416941F48031416170470020024054
:100FB00008494A69C0B222F4FC7242EAC0004861A2
:100FC000486940F002004861486940F48030486157
:100FD0007047000000200240054910B54C6944F0FC
:100FE00001044C610260BFF36F8F436010BD0000CD
:100FF00000200240094A10B55469402344F480247B
:101000005461EFF3108272B610C95B1E10C013F06A
:10101000FF03F9D182F3108810BD000000200240C8
:1010200070B5064601F0E6F90546144C07E000BF2E
:1010300001F0E0F9401BB04201D9032070BD2069E6
:10104000C043C003F4D520694CF2FA3108400CD0FB
:101050000B494A6802434A60810F01D0A169A1612E
:10106000810000D02061012070BD2069C043C0070D
:1010700001D101202061002070BD0000002002404D
:101080001C000020F8B500260446009690F8580091
:101090000D4601280BD0012084F858002046FFF7A8
:1010A000A3FE0100E06D04D040F010002AE0022011
:1010B000F8BD20F4885040F00200E06520688268A6
:1010C000134B1A4005F080431A4342F000428260FD
:1010D000104A20680EE0009B5B1C0093934209D3EA
:1010E000E06D20F0020040F01000E06584F85860E8
:1010F0000120F8BD8368DB0FEDD1E06D20F0020028
:1011000040F00100E06584F858600846F8BD000032
:10111000C0FFFF3F02DE0400704700002DE9F84FDA
:101120004FF000080446CDF800800D4694F8582092
:10113000DFF8EC93616947464046012A0AD0012650
:10114000F84A84F8586041B1296A012905D0A36E94
:10115000EBB129E00220BDE8F88F6868092838D192
:10116000A96A4FF4785041B12B6801F07C0100EA84
:1011700053400843E96A084302E0296800EA514005
:101180002168CB6C13400343CB64606621E0C4E963
:101190001971A96A286A31B101F07C01401E084327
:1011A000E96A084300E0401E29682B79C1F3846195
:1011B00003F01F0399400143A06E401EA066636EBA
:1011C00043EA0103636604D12068C16C11401943EE
:1011D000C164206803F022F858B995F8250098B149
:1011E0002068C16895F8262021F4401141EA425157
:1011F000C160206803F01AF88246206803F00EF8F8
:101200005AEA00000DD0FBE095F8260095F824106E
:10121000400540EA01512068C26822F4401211439F
:10122000E6E7A86A30B1E86A20B195F82500012800
:101230005ED003E095F82500012804D02068C1683D
:1012400021F0007103E02068C16841F00071C160C5
:1012500095F83000012852D02068016921F0020180
:101260000161AA6829682068B2F1004F38D002F005
:10127000E9FF2068416921F0004141612068696906
:10128000C268C2F3C102520091402A69042A44D0C4
:1012900000EB82002B68026EDFF88CC203F0F8438B
:1012A00002EA0C020B431A4342F000410166206837
:1012B0002A69A96900EB8200026E22F080720A435B
:1012C0000266297F22682869012923D05FF0000186
:1012D00002EB8000026E22F000720A4302668FE089
:1012E000002202F0AFFF2068416941F00041C4E7ED
:1012F000E06D40F02000E0654FF00108A8E7D5E977
:101300000D1001432068026922F4FF7242F00202CC
:101310001143A5E74FF00071DAE7002102F074FFF6
:10132000400320684FF0000172D002F06DFF90FA88
:10133000A0F0B0FA80F1286842036ED090FAA0F0D5
:10134000B0FA80F0814204D100221146206802F0F8
:1013500088FF0121206802F057FF400320684FF00A
:1013600001015DD002F050FF90FAA0F0B0FA80F1D8
:101370002868420359D090FAA0F0B0FA80F0814278
:1013800004D100220121206802F06BFF02212068B5
:1013900002F03AFF400320684FF0020148D002F00B
:1013A00033FF90FAA0F0B0FA80F12868420344D0ED
:1013B00090FAA0F0B0FA80F0814204D1002202211C
:1013C000206802F04EFF0321206802F01DFF400359
:1013D00020684FF0030133D002F016FF90FAA0F01E
:1013E000B0FA80F1286842032FD090FAA0F0B0FA4A
:1013F00080F0814204D100220321206802F031FFF5
:101400002068816811F0010F22D0B6E000E004E00E
:1014100002F0FAFEC0F384618DE7C0F3846091E7C7
:1014200002F0F2FEC0F38461A2E7C0F38460A6E795
:1014300002F0EAFEC0F38461B7E7C0F38460BBE763
:1014400002F0E2FEC0F38461CCE7C0F38460D0E731
:101450002A7B296850F8B03FC1F3120C23EA0C0331
:1014600002F0180C314A22FA0CF20A4013430360CE
:10147000E96849457ED1286841031BD090FAA0F164
:10148000B1FA81F1491C01F01F0109294FEA4031ED
:1014900031D8002911D090FAA0F1B1FA81F100BF42
:1014A00001F1010101F01F0106FA01F608D1C0F3B4
:1014B000846109E0C0F38461E4E7C0F38461EFE78D
:1014C00090FAA0F1B1FA81F101F1010101F01F01DF
:1014D00046EA816102D1C0F3846003E090FAA0F093
:1014E000B0FA80F000F1010000F01F0000EB4000B6
:1014F00041EA00513BE000290ED090FAA0F1B1FA88
:1015000081F100BF01F1010101F01F0106FA01F6AE
:101510000ED1C0F384610FE0C0F38461F2E70000F4
:1015200000007F400040100400F0FF03FFFF0700B1
:1015300090FAA0F1B1FA81F101F1010101F01F016E
:1015400046EA816102D1C0F3846003E090FAA0F022
:10155000B0FA80F000F1010000F01F002B4A00EB10
:10156000400002EB005041EA000141F00071AA681E
:10157000206800E001E002F065FE25482A6802428A
:1015800040D024488168244B01F0E0719A4202D097
:10159000224B9A421BD10B0219D42268B2F1A04F00
:1015A00030D1826841F4000122F0E0720A43826087
:1015B0001B481C490068B0FBF1F0801C00EB4000A8
:1015C000800000E0401E00900028FBD11AE0164D7C
:1015D000164BAA4207D1CD0105D422689A4211D0F8
:1015E00041F0807109E0124DAA420BD14A0209D4A0
:1015F00022689A4206D041F48001826822F0E072AB
:101600000A43826084F858704046A4E5000020FE3A
:101610000000088000030050000021C31000C090AB
:101620003C000020400D0300000052C700010050A4
:10163000000084CB70477047704770472DE9F04732
:10164000044690F858009CB00E464FF0000901285F
:1016500022D0012084F8580000251795189520689D
:101660004FF0A048404519D1274F0097384602F067
:10167000DDFD8246206802F0D9FD50EA0A0115D04E
:10168000E06D40F02000E0654FF0010984F858500B
:1016900048461CB0BDE8F0870220FAE7E06D40F054
:1016A0002000E06584F858500120F2E717483168BF
:1016B00040F61F720029816821F4604116D094F829
:1016C000383041EA4331736819438160D8F8081013
:1016D000BB6801F0010103F001031943D6D1B368DF
:1016E000316819438368934319430BE08160D8F84C
:1016F0000810BB6801F0010103F001031943C5D1D3
:10170000816891438160C1E70001005000030050EF
:10171000704770472DE9F05F044600680668456829
:10172000DFF854B2DBF8080000F01F07B0070ED551
:10173000A8070CD5E06DC00603D4E06D40F400604E
:10174000E0652046FFF7E8FC216802200860DFF82A
:101750002CA270074FF0A04801D5680703D43007CA
:1017600037D5280735D5E06DC00603D4E06D40F4C9
:101770000070E065206802F05DFD20B320685045F0
:1017800001D1424600E00246824208D03FB1052F17
:1017900005D0092F03D0504503D1414602E0C1686E
:1017A00001E00146C96889040DD4016809070AD51A
:1017B00002F038FD58B3E06D40F01000E065206E97
:1017C00040F0010020662046FFF7A2FF21680C20B0
:1017D0000860B00601D5A80603D4700658D568067F
:1017E00056D5E06DC00603D4E06D40F40050E065CE
:1017F0002068C16C11F4C07F1AD00021894602F024
:1018000019FD02462068504514D1434613E0206874
:10181000416821F00C014160E06D20F48070E065CA
:10182000E06DC004CFD4E06D40F00100E065CAE790
:101830000121E3E70346834208D03FB1062F05D0DC
:10184000072F03D0504503D1414602E0C16801E0B3
:101850000146C968B9F1000F14D08B0102D58AB1D5
:101860008A040FD4026852060CD589020AD402F009
:10187000D1FCE8B3E06D40F01000E065206E40F070
:10188000010020662046FFF7D5FE21686020086031
:1018900030060BD5280609D5E06D40F48030E065B0
:1018A000204600F069F9216880200860F0050CD519
:1018B000E8050AD5E06D40F40030E0652046FFF70A
:1018C000BBFE21684FF480700860B0050CD5A805F8
:1018D0000AD5E06D40F48020E0652046FFF7ADFEBC
:1018E00021684FF400700860F0062ED5E80600E08D
:1018F00008E02AD5E06BD0B1AFB1DBF8080000F406
:10190000604013E02068416821F060014160E06DB3
:1019100020F48050E065E06DC005B3D4E06D40F088
:101920000100E065AEE72068C068C00750B1E06D17
:1019300040F48060E065206E40F0020020662046A2
:10194000FFF7E7FE216810200860700512D56805D2
:1019500010D5E06D40F48040E065206E40F0080056
:10196000206621684FF4806008602046BDE8F05F83
:10197000FFF761BEBDE8F09F00030050000100507A
:10198000F8B54FF0000504002E46009502D0E06D3A
:1019900010B107E00120F8BD204600F0EFF8266600
:1019A00084F8586020688168C1F3407119B181687A
:1019B000694A1140816020688168C1F3007189B96A
:1019C0008168664A114041F08051816064486549F0
:1019D0000068B0FBF1F04000801C00E0401E009069
:1019E0000028FBD120688168C1F3007141B9E16D25
:1019F00041F01001E165216E41F0010121660125F0
:101A000002F010FC0646E06D00F01001E06D31437D
:101A100005D040F01000E06501252846F8BD20F40F
:101A2000807040F00200E0652068806810F0010FCF
:101A300011D14FF0A04080684B4900F00100896847
:101A400001F00101084306D148486168826822F428
:101A50007C120A438260E168E06B627F0843A16800
:101A600041EA4231084394F8241040EA0140012938
:101A700004D1218D3E4A02EB41410843E16A29B17C
:101A800001F47871226B014342EA01002268D168B7
:101A9000384B19400143D16020680169626B21F025
:101AA000406111430161206802F0B4FB06432ED16E
:101AB000207F94F83810800340EA41022168C8680A
:101AC00044F2020398431043C8602069002820684C
:101AD00001690AD041F480310161206850F8C01FCB
:101AE00022696FF30D01114307E021F48031016198
:101AF000206850F8C01F6FF30D01016094F840009A
:101B000001280CD02068016921F0010101616069A0
:101B100001282068016B21F00F0111D013E0D4E9F6
:101B200011010843D4E913121143084321680A69DB
:101B300040F2FC739A43104340F001000861E6E76D
:101B4000226A521E11430163E06D20F0020040F052
:101B50000100E06561E70000C0FFFF5FC0FFFF7F9D
:101B60003C000020400D0300000100500003005025
:101B70000000FEFF0740F0FF704700002DE9F04134
:101B800098B00446142111A8FEF7ADFB4421684625
:101B9000FEF7A9FB4FF40041206800254A03384FA7
:101BA0000326384C4FF09048B0F1A04F10D0364B80
:101BB000984261D10F926846009100F0F3FD08B1A0
:101BC000FFF7B4F93868401C3860012834D03BE096
:101BD0000F926846009100F0E5FD08B1FFF7A6F905
:101BE0003868401C3860012807D1E06C40F4005090
:101BF000E064E06C00F400501690E06C40F00100EE
:101C0000E064E06C00F001001690E06C40F002002F
:101C1000E064E06C139500F0020016900420CDE91A
:101C2000110611A9404600F0C1FA02201395CDE932
:101C3000110611A9154815E0E06C40F40050E0646D
:101C4000E06C00F400501690E06C40F00100E0649D
:101C5000E06C139500F0010016904020CDE91106CC
:101C600011A9404600F0A2FA00220221122000F041
:101C700027FC122000F016FC18B0BDE8F08100002F
:101C80000C00002000100240000100500004004839
:101C900010B590F8253000210122022B03D0042139
:101CA000C163012122E003681C6824F00E041C605B
:101CB000836C1C6824F480741C6003681C6824F026
:101CC00001041C6090F84430046C03F01F0302FA16
:101CD00003F36360D0E913345C60436D33B11C6877
:101CE00024F480741C60D0E916345C6080F82520F0
:101CF000002280F82420084610BD70B590F82520F9
:101D0000002401212346022A07D00422C26380F85E
:101D1000251080F82430012429E00268156825F098
:101D20000E0515600268156825F001051560826CC6
:101D3000156825F48075156090F84420056C02F054
:101D40001F0201FA02F26A60D0E913255560426D64
:101D500032B1156825F480751560D0E916255560F7
:101D600080F8251080F82430816B01B18847204627
:101D700070BDF0B4016C0C6801680D6890F84420E7
:101D800002F01F06042202FA06F3234211D06B0769
:101D90000FD50B689B0603D40B6823F004030B607C
:101DA00090F8441001F01F018A40016C4A60016BF9
:101DB0001DE0022303FA06F727424FF0000C4FF014
:101DC000010218D0AF0716D50C68A40605D40C681C
:101DD00024F00A040C6080F8252090F8441001F0EB
:101DE0001F018B40016C4B6080F824C0C16A002940
:101DF0001AD0F0BC08470823B340234214D02B0765
:101E000012D50B6823F00E030B6090F84410036C9E
:101E100001F01F0102FA01F15960C26380F8252028
:101E200080F824C0416BE2E7F0BC704770B5040055
:101E30000CD02B4A21681420914209D2294A0A4425
:101E4000B2FBF0F08000606427480AE0012070BD1A
:101E5000234A52420A44B2FBF0F0800060642048FA
:101E600008382064022084F825000A6847F6F070DC
:101E70008243D4E902031843D4E904352B431843C1
:101E8000A3691843E3691843236A184310430860A1
:101E90002046FEF7F1FFA0680025B0F5804F00D185
:101EA0006560A16C20790860D4E913014160606825
:101EB000401E032808D82046FEF7FEFF606D05602F
:101EC000D4E91601416002E06565A565E565E56355
:101ED000012084F8250084F82450002070BD000003
:101EE00008040240F8FFFDBF0000024070B5044640
:101EF00090F82400002501280CD0012084F824004B
:101F000094F825600020012E06D084F824000225D4
:101F1000284670BD022070BD022684F82560E0636B
:101F20002068066826F0010606602046FEF7D6FF08
:101F3000206B00282068016802D041F00E0106E005
:101F400021F0040101602068016841F00A0101608C
:101F5000A06C0168C90303D5016841F48071016078
:101F6000606D18B1016841F48071016020680168FA
:101F700041F001010160CBE770B5044600F03AFA88
:101F80000546601C02D004484068044400F032FA60
:101F9000401BA042FAD370BD100000202DE9F05F75
:101FA000054631488946017801290CD00126804632
:101FB00006704FF47A7B5846FFF732F807004FF06F
:101FC000000A03D04BE00220BDE8F09F5146404696
:101FD000C8F804A0254C226892050AD52168490555
:101FE00005D5216821F480612160032109E006778D
:101FF00008E02268520504D5216821F4806121603F
:10200000022101772868012805D04FF0FF31C9F877
:102010000010AE681CE06868FEF7BCFF5846FEF78B
:10202000FFFF0746606920F00400606115E030465C
:102030006968FEF7BDFF5846FEF7F2FF07006069CA
:1020400020F4FD70606102D0C9F8006005E0761CE4
:10205000D5E902010844B042E9D8FEF76DFF88F8DF
:1020600000A03846B0E700001C000020002002401D
:10207000054901204A6942F000424A614969002944
:1020800000DA002070470000002002402DE9FF5FC9
:10209000254C0646904620789A4601280BD0012010
:1020A00020704FF47A7B5846FEF7BAFF07004FF0D6
:1020B000000904D02AE0022004B0BDE8F09F4846A1
:1020C000C4F80490194D2968490504D5286820F4FE
:1020D000806028600220207726B1012E09D0022ED0
:1020E00007D00CE0424653460198FEF775FF0126E3
:1020F00012E041460198FEF77DFF022E0AD05846B5
:10210000FEF78EFF4FEA0007FEF716FF84F80090F7
:102110003846D1E74FF480265846FEF781FF074640
:102120006869B0436861EFE71C00002000200240AE
:10213000064900204A69002A07DA054A8A60054AEA
:102140008A604969002900DA0120704700200240B6
:1021500023016745AB89EFCD10B50D4CB0F5806F0D
:1021600009D0B0F5807F11D16068401C6060BDE887
:10217000104003F087BE00F03DF9A168411AC8295C
:1021800004D9A060BDE8104005F0A6BA10BD00005B
:1021900000000020044910B50A68024202D008601D
:1021A000FFF7DAFF10BD0000140401402DE9F04FE5
:1021B000DFF82092002301260324A9F1040B85B047
:1021C0000F2709F1040AABF1040EFAE006FA03F551
:1021D0002A407CD091F804C00CF0030CBCF1010F34
:1021E00002D0BCF1020F26D1D0F808C0CDF800C053
:1021F0004FEA430C04FA0CF8CDF810C0DDF800C02B
:102200002CEA080CCDF800C0D1F80C80DDF810C025
:1022100008FA0CF8DDF800C048EA0C08C0F808809D
:10222000D0F804C02CEA050C0D79C5F300159D40CB
:1022300045EA0C0545600D79ED43AD070ED0C56844
:102240004FEA430804FA08FC25EA0C05D1F808C057
:102250000CFA08FC4CEA050CC0F80CC00D7905F02E
:102260000305022D16D1DD0800EB850CCDF808C062
:10227000DCF820805D074FEAD56C07FA0CF528EAF8
:1022800005080D6905FA0CF5DDF808C045EA0805F2
:10229000CCF8205005684FEA430CCDF808C004FA8A
:1022A0000CFC25EA0C0591F804C00CF00308DDF8DD
:1022B00008C008FA0CF848EA0508C0F800804D6824
:1022C00015F4403F7CD0444DD5F860C000E077E085
:1022D0004CF0010CC5F860C02D6E23F0030C05F026
:1022E000010500953D4D65440295AD684FEA837C3C
:1022F0004FEA1C7807FA08FC25EA0C05B0F1904F6C
:1023000006D0DFF8DCC0604505D14FF0010C20E0BD
:102310004FF0000C1DE0DFF8CCC0604502D14FF05B
:10232000020C16E0DFF8C0C0604502D14FF0030C8C
:102330000FE0DFF8B8C0604502D14FF0040C08E0B0
:10234000DFF8ACC0604502D14FF0050C01E04FF062
:10235000060C0CFA08FC4CEA050C029DC5F808C0F6
:10236000D9F80050CC46D1F8048095435FEAC828DC
:1023700000D51543CCF80050DAF80050D446D1F817
:10238000048095435FEA882800D51543CCF80050B7
:10239000DBF80050DC46D1F8048095435FEA8838CA
:1023A00000D51543CCF80050DEF80050F446D1F8C3
:1023B000048095435FEAC83800D51543CCF8005037
:1023C0005B1C0A6832FA03F57FF400AF05B0BDE884
:1023D000F08F00000804014000100240000001409E
:1023E0000004004800080048000C004800100048A5
:1023F0000014004801488068704700001000002069
:1024000002488168426811448160704710000020D2
:1024100010B50024032000F073F80F2000F008F836
:1024200008B1012401E000F025F8204610BD0000AD
:1024300070B50E4E05460024706898B14FF47A715D
:10244000B1FBF0F00A490968B1FBF0F000F038FE8A
:1024500040B9102D06D200222946501E00F030F857
:10246000356000E00124204670BD0000100000200F
:102470003C0000200A4882B0016E41F00101016673
:10248000016E01F001010091816D41F08051816583
:10249000806D00F08050009002B000F07BB9000029
:1024A00000100240002809DB00F01F0201219140CA
:1024B0004009800000F1E020C0F8001170470000E2
:1024C000F0B40E4B1B680C46C3F30223C3F107059F
:1024D000042D00D90425191D072901D2002300E08D
:1024E000DB1E012606FA05F1491E214099409E4057
:1024F000761E16403143F0BC02F050BF0CED00E0F8
:10250000064900F0070208684FF6FF03184040EA4A
:102510000220034A10430860704700000CED00E001
:102520000000FA05F8B504004FF0000514D094F847
:102530003A00052810D094F83A0002280CD034480C
:10254000016E41F001010166006E00F00100009093
:1025500094F83A0010B104E00120F8BD002084F89E
:102560003900204600F058F8A0682A4A4FF48071DC
:10257000402836D0602834D020680368E66A23F00B
:10258000100333430360D4E901031843D4E903364D
:1025900033431843237D012B00D000210843616A97
:1025A0000843A16A0843218E40EAC14094F83410E0
:1025B00040EA016120680368134019430160206804
:1025C0008169002909DBD4E906121143226A836973
:1025D00023F03F031A431143816194F83A0090B10C
:1025E00014E020680368E66A23F0100333430360B5
:1025F000D4E901031843267D2369012E00D0002170
:102600000B431843CBE7012084F83A002846F8BD75
:1026100000100240113E00E030B587B0044614219E
:102620006846FDF760FE24681D4D00221D49032306
:102630004FF09040AC4209D1CC6C44F00104CC6422
:10264000C96C01F0010105910E210CE0144D2D1D06
:10265000AC4211D1CC6C44F00104CC64C96C01F0E3
:1026600001010591E021CDE9001302924FEA0D012D
:10267000FFF79CFD07B030BD094808308442F9D10E
:10268000C86C40F00200C864C86C694600F00200E3
:1026900005900720CDE9000302920348E8E7000017
:1026A000000301400010024000040048002138B13E
:1026B00090F83A20052A03D090F83A20012A02D057
:1026C0000121084670470268136843F00103136054
:1026D000042280F83A20F4E72B492C4B0A68322177
:1026E0004A432B4940B1B0F5007F086829D020F457
:1026F000C06040F480602CE00868C0F341200228EC
:1027000004D051F8800F20F4807022E0D1F88000CE
:1027100020F48070C1F88000086820F4C06040F4A4
:1027200000700860B2FBF3F0401C00E0401E4A69F4
:10273000520501D50028F9D1486940050AD5032082
:102740007047C0F34120022806D051F8800F40F4B2
:102750008070086000207047D1F8800040F48070DD
:10276000C1F88000086820F4C06040F40070086080
:10277000B2FBF3F0401C00E0401E4A695205DBD575
:102780000028F9D1D8E700003C00002040420F00AB
:10279000007000400248816841F4804181607047C8
:1027A000007000402DE9F8430446006800269D4D66
:1027B00000035ED5A86D0027C00008D4A86D40F0C6
:1027C0008050A865A86D012700F080500090DFF8C8
:1027D0005892D9F8001041F48071C9F80010FFF741
:1027E00009FE804606E000BFFFF704FEA0EB0800EC
:1027F00002282BD8D9F80000C005F5D5D5F89000EF
:1028000010F4407014D0216C814211D0D5F89000A2
:10281000D5F8901020F4407041F48031C5F8901044
:10282000D5F8901021F48031C5F89010C5F89000CB
:10283000C00711D0FFF7DEFD804641F2883907E07E
:10284000FFF7D8FDA0EB0801494501D903260BE0AD
:10285000D5F890008007F3D5D5F89000216C20F4CE
:1028600040700843C5F890001FB1A86D20F080505B
:10287000A8652078C00707D0D5F88800616820F0E7
:1028800003000843C5F888002078800707D5D5F8ED
:102890008800A16820F00C000843C5F88800207863
:1028A000400707D5D5F88800E16820F030000843DC
:1028B000C5F888002078000707D5D5F88800216979
:1028C00020F0C0000843C5F888002078800607D5AE
:1028D000D5F88800616920F440600843C5F8880095
:1028E0002078400607D5D5F88800A16920F440502B
:1028F0000843C5F888002078000607D5D5F8880079
:10290000E16920F440400843C5F888002088C005EC
:1029100007D5D5F88800216A20F440300843C5F86F
:1029200088002088800507D5D5F88800616A20F4E2
:1029300040200843C5F88800208840050FD5D5F809
:102940008800A16A20F440100843C5F88800A06AF6
:10295000B0F5801F03D1E86840F48010E86020885B
:1029600000050FD5D5F88800E16A20F4400008433F
:10297000C5F88800E06AB0F5800F03D1E86840F43C
:102980008010E8602088C0040FD5D5F88800216B3E
:1029900020F040700843C5F88800206BB0F1807FBC
:1029A00003D1E86840F48010E86020884FF00061AF
:1029B00080040ED5D5F88800626B20F0406010438B
:1029C000C5F88800606B884203D1E86840F4801045
:1029D000E860208840040ED5D5F88800A26B20F06E
:1029E00040601043C5F88800A06B884203D1E868B6
:1029F00040F48010E860208800040FD5D5F88800E6
:102A0000E16B20F040500843C5F88800E06BB0F15E
:102A1000805F03D1E86840F48030E8603046BDE86C
:102A2000F883000000100240007000402DE9F047DC
:102A30000E4605004FF0000725D0DFF8AC81D8F82E
:102A4000000000F00F00B0420CD2D8F8001021F0C6
:102A50000F013143C8F80010D8F8000000F00F0053
:102A6000B04210D12968614CC80741F2883A5AD067
:102A70006868DFF87C91032808D0022820682DD0F0
:102A8000400500282CDB0120BDE8F087206880018C
:102A9000F9D5E06800F00302E068C0F30310401CC1
:102AA000032A19D0534A00BFB2FBF0F0E268C2F328
:102AB00006225043E268C2F34162521C5200B0FB4E
:102AC000F2F0484517D9A06810F0F00F0CD0880735
:102AD00011D5A86840B10EE0474AE5E78003D0E78A
:102AE00000F0B6F8484506D9A06820F0F00040F0A4
:102AF0008000A0608027A068696820F00300084378
:102B0000A060FFF777FC814606E000BFFFF772FC8C
:102B1000A0EB090151453AD8A068696800F00C00A3
:102B2000B0EB810FF2D12868810714D5400703D597
:102B3000A06840F4E060A0602878000705D5A06890
:102B400020F4605040F4E060A060A068A96820F024
:102B5000F000084304E0802F03D1A06820F0F000CB
:102B6000A060D8F80010404601F00F01B14216D91C
:102B7000016821F00F0131430160FFF73BFC07467C
:102B800007E000BFFFF736FCC11B514501D9032008
:102B90007AE7D8F8000000F00F00B042F2D12878B0
:102BA000400705D5A068E96820F4E0600843A0600C
:102BB0002878000706D5A068296920F4605040EA0B
:102BC000C100A06000F044F8A1680C4AC1F30311F1
:102BD000515C01F01F01C8400949086009480068BC
:102BE000BDE8F047FFF724BC00200240001002407F
:102BF00000B4C4040024F40000127A0024A10008E8
:102C00003C00002010000020054806490068896843
:102C1000054AC1F30221515C01F01F01C840704711
:102C20003C0000200010024034A10008054806497D
:102C300000688968054AC1F3C221515C01F01F0197
:102C4000C84070473C0000200010024034A100083A
:102C5000184910B58868C0F381021748012A0BD0C3
:102C60008A684310C2F38102022A06D08A68C2F33E
:102C70008102032A03D0002010BD184610BDCA6887
:102C800002F00304CA68C2F30312521C032C02D0E0
:102C9000B0FBF2F001E0B3FBF2F0CA68C968C2F31E
:102CA00006225043C1F34161491C4900B0FBF1F0D9
:102CB00010BD0000001002400024F4002DE9F8438C
:102CC00004007AD02078F84DC00747D0A868E9689A
:102CD00000F00C0001F003010C2802D0082817D0E6
:102CE00001E0032914D06068B0F5803F17D0B0F53B
:102CF000A02F286817D020F480302860286820F49E
:102D0000802028606068E0B1FFF774FB064614E09D
:102D10002868800322D560680028D2D01EE0286889
:102D200040F48030EDE740F480202860F7E700BFF2
:102D3000FFF760FB801B642870D828688003F7D5F4
:102D40000CE0FFF757FB064605E000BFFFF752FB1C
:102D5000801B6428F0D828688003F7D42078800787
:102D60004CD5A868E96800F00C0001F003010C28BC
:102D700002D004280DD001E002290AD0E068002822
:102D800028682BD040F480702860FFF733FB06469C
:102D900019E02868400502D5E068002891D06868ED
:102DA000217C20F0FE4040EA01606860BF48006876
:102DB000FFF73EFB002800D120E072E1FFF71AFB8D
:102DC000801B0228B8D828684005F7D56868217CA0
:102DD00020F0FE4040EA016068600FE020F480705F
:102DE0002860FFF707FB064605E000BFFFF702FB80
:102DF000801B0228A0D828684005F7D42078000757
:102E000029D560690028D5F8940013D040F001005E
:102E1000C5F89400FFF7EEFA064606E090E000BF22
:102E2000FFF7E8FA801B022886D8D5F894008007BF
:102E3000F6D510E020F00100C5F89400FFF7DAFAAB
:102E4000064604E0FFF7D6FA801B022878D8D5F8AA
:102E500094008007F6D42078400761D5A86D00263D
:102E6000C00008D4A86D40F08050A865A86D012668
:102E700000F0805000908E480168C90511D40168A7
:102E8000804641F480710160FFF7B4FA074604E020
:102E9000FFF7B0FAC01B022852D8D8F80000C005CE
:102EA000F6D5A068012815D00528D5F8900016D0D1
:102EB00020F00100C5F89000D5F8900020F0040043
:102EC000C5F89000A06841F28838B8B1FFF792FACF
:102ED00007460EE0D5F8900040F00100F0E740F022
:102EE0000400C5F89000F5E7FFF784FAC11B4145DF
:102EF00026D8D5F890008007F6D50CE0FFF77AFACF
:102F0000074604E0FFF776FAC11B414518D8D5F80B
:102F100090008007F6D41EB1A86D20F08050A865FF
:102F20002078800629D5A0690028D5F8980013D00C
:102F300040F00100C5F89800FFF75CFA064606E08D
:102F400075E000BFFFF756FA801B02286FD8D5F84E
:102F500098008007F6D510E020F00100C5F8980031
:102F6000FFF748FA064604E0FFF744FA801B022800
:102F70005DD8D5F898008007F6D4E069F0B3A96869
:102F8000C1F3810103295DD00228286820F08070F8
:102F9000286003D0FFF72EFA04464BE0FFF72AFA29
:102FA000064604E0FFF726FA801B02283FD828686F
:102FB0008001F7D4F4E908016FF00F0202EB011170
:102FC0000843218A5204490802EB4151A26841EAB0
:102FD00002210843217D4FF07E42490802EB416106
:102FE0000843217B40EAC160E968324A1140084346
:102FF000E860286840F08070286000E05EE0E868E3
:1030000040F08070E860FFF7F5F9044605E000BF86
:10301000FFF7F0F9001B022809D828688001F7D5CE
:103020004CE000BFFFF7E6F9001B022802D903209D
:10303000BDE8F88328688001F4D4E8681E49084098
:10304000E8603BE00128F3D0E868226A00F0030161
:10305000914226D1616A00F0F002090110399142D3
:103060001FD1A26A00F4FE41B1EB022F19D194F8EE
:103070002C2000F07841B1EBC26F12D1218E00F408
:10308000C00249084905A1F50011914209D194F8FF
:10309000341000F0C06049084906A1F10071814276
:1030A0000CD00120C4E700000010024010000020F6
:1030B000007000400C809F01FCFFEEFE0020B7E78F
:1030C00010B5401EB0F1807F01D3012010BD4FF03C
:1030D000E02460610F21601702F060F90020A06118
:1030E00007202061002010BD704770477047000026
:1030F00030B590F83C20012A42D0012280F83C20D3
:10310000CA688B6822F440721A434B6822F48062CA
:103110001A430B6822F400621A430B6922F48052AE
:103120001A434B6922F400521A430B6B22F480427B
:103130001A430B8B22F4702242EA0342CB6922F03D
:1031400080521A430F4D03680024AB4202D00E4D4B
:10315000AB4210D10D8D22F4700242EA05520D6A85
:1031600022F080722A434D6A22F000722A43C96A13
:1031700022F000520A435A6480F83C40002030BDDF
:10318000022030BD002C01400034014070477047E0
:1031900070470000F0B590F83C20012A3AD0012594
:1031A00080F83C50022280F83D2003685A689C68F1
:1031B000194E1A4FB34201D0BB4204D122F4700C15
:1031C0004A6842EA0C02DFF858C002EA0C02D1F861
:1031D00000C04CEA020CC3F804C00268B2420DD031
:1031E000B2F1804F0AD00F4B9A4207D00E4B9A4251
:1031F00004D0BA4202D00D4B9A4204D1896824F01F
:1032000080031943916080F83D50002180F83C1004
:103210000846F0BD0220F0BD002C01400034014002
:103220008FFFFFFD00040040000800400040014007
:10323000704710B5040003D094F83D0010B107E0CA
:10324000012010BD002084F83C00204600F022F848
:10325000022084F83D00211D206801F099FA012028
:1032600084F8480084F83E0084F83F0084F8400069
:1032700084F8410084F8420084F8430084F8440054
:1032800084F8450084F8460084F8470084F83D003F
:10329000002010BD08B500680B49884212D10B48C8
:1032A000016E41F400610166006E002200F40060CE
:1032B000009011461920FFF703F9BDE808401920D6
:1032C000FFF7F0B808BD0000002C014000100240DC
:1032D00070B5044690F83C000025012814D0012662
:1032E00084F83C60022084F83D0022689068364BE8
:1032F000184020F47F409060086870282ED010DCC1
:1033000010F00F0F03D021E04FF0020070BD4FEA24
:103310002012072A1AD2DFE802F0525252524A38DB
:1033200040002A4BC21A984249D009DCB0F5805FB0
:103330000DD0B0F5005F1CD0B0F1101F06D13EE0FB
:10334000102A3CD0202A3AD0502A38D0012584F8BF
:103350003D60002084F83C00284670BDCB68D1E970
:103360000121206801F07FFA2068816841F077012F
:1033700009E0CB68D1E90121206801F074FA2068E6
:10338000816841F480418160E1E7CA68496820684A
:1033900001F014FC5021206806E0CA6849682068E2
:1033A00001F01DFC6021206801F068FACFE7CA68CF
:1033B0004968206801F002FC40212068F4E7226897
:1033C00001461046F0E7000088FFCEFF2000100005
:1033D0002DE9F0410D46040003D094F83D0018B1EA
:1033E00008E00120BDE8F081002084F83C00204680
:1033F00000F042F8022084F83D00206881681D4AF0
:1034000011408160211D206801F0C2F92268906896
:103410009169166A2B68AF69034340F20330814318
:1034200041EA0721A868EF6908434FF6FC41884349
:10343000E96840EA0720014328692F6A000140EA51
:103440000730084369686D6926F0AA0646EA051543
:10345000294393602268906154F8480B016201206F
:1034600004F81F096075A075E076207720750020AC
:10347000B8E70000F8BFFEFF10B586B0044614217F
:103480006846FCF730FF1149206888421CD110487B
:10349000816D41F004018165816D01F004010591A8
:1034A000C16C41F00201C164C06C002100F0020057
:1034B0000590C02000900220CDE90101CDE9031064
:1034C00069460448FEF772FE06B010BD00080040D1
:1034D000001002400004004870B590F83E600446B9
:1034E00090F83F5090F8443090F84520022021B1E8
:1034F00004290ED0012E1BD114E0012E18D1012B6E
:1035000016D184F83E0084F844000122002120688E
:1035100020E0012D0CD1012A0AD184F83F0084F863
:10352000450014E0012D03D1012B01D1012A01D066
:10353000012070BD84F83E0084F83F0084F8440008
:1035400084F8450001220021206801F07FF9012262
:103550000421206801F07AF92068016841F0010136
:103560000160002070BD70472DE9F04104460068FD
:10357000C66805694FF00007A90713D5B10711D533
:10358000F91E0161012020772068806980072046AC
:1035900002D0FFF7E8FF04E000F00AF9204600F04F
:1035A000CCF92777680716D5700714D521686FF016
:1035B00004000861022020772068806910F4407FB1
:1035C000204602D0FFF7CFFF04E000F0F1F82046DC
:1035D00000F0B3F92777280715D5300713D52168F0
:1035E0006FF008000861042020772068C069800718
:1035F000204602D0FFF7B7FF04E000F0D9F82046DC
:1036000000F09BF92777E80616D5F00614D5216857
:103610006FF010000861082020772068C06910F45E
:10362000407F204602D0FFF79EFF04E000F0C0F884
:10363000204600F082F92777E80708D0F00706D087
:1036400021686FF001000861204600F0F5F92806B6
:1036500001D4A80408D5300606D521686FF40250BD
:1036600008612046FFF741FDE80508D5300606D57C
:1036700021686FF4807008612046FFF735FD680609
:1036800008D5700606D521686FF040000861204615
:1036900000F0DCF9A80608D5B00606D521686FF061
:1036A000200008612046FFF721FDE80208D5F0025E
:1036B00006D521686FF4801008612046FFF767FD8A
:1036C000A80208D5B00206D521686FF40010086181
:1036D0002046FFF75BFD680208D5700206D5216819
:1036E0006FF4800008612046FFF752FD28020AD5DA
:1036F000300208D521686FF4000008612046BDE85B
:10370000F041FFF795BDBDE8F081000030B587B00E
:10371000044614216846FCF7E6FD214920688842EA
:103720003CD12048C16C41F00401C164C16C01F07E
:1037300004010591C16C41F00201C164C16C01F04A
:1037400002010591C16C41F00101C164C06C022409
:1037500000F0010005904FF40050CDE9000404256D
:10376000029469461048CDE90345FEF71FFDA0030A
:10377000CDE90004029469460C48CDE90345FEF703
:1037800015FD4FF4B850CDE9000406200294CDE9B0
:10379000034069464FF09040FEF708FD07B030BD8A
:1037A000002C0140001002400008004800040048BE
:1037B000704770B5044690F83C0000260D4601287D
:1037C0000BD0012084F83C000C2A4AD007DC82B1DF
:1037D000042A20D0082A06D131E0022070BD102A28
:1037E00053D0142A63D00126002084F83C003046D0
:1037F00070BD206801F04CF82068816941F0080133
:1038000081612068816921F00401816120688169FA
:103810002A69114311E0206801F088F82068816965
:1038200041F4006181612068816921F480618161D6
:10383000206881692A6941EA02218161D4E7206810
:1038400001F0BCF82068C16941F00801C16120683D
:10385000C16921F00401C1612068C1692A6911436D
:1038600011E0206801F0F2F82068C16941F40061BC
:10387000C1612068C16921F48061C1612068C169AA
:103880002A6941EA0221C161AEE7206801F026F908
:103890002068016D41F0080101652068016D21F08B
:1038A000040101652068016D2A69114311E0206857
:1038B00001F04CF92068016D41F400610165206858
:1038C000016D21F4806101652068016D2A6941EA7A
:1038D0000221016588E710B5040003D094F83D008B
:1038E00010B107E0012010BD002084F83C00204604
:1038F00000F022F8022084F83D00211D206800F02D
:1039000047FF012084F8480084F83E0084F83F0017
:1039100084F8400084F8410084F8420084F84300B1
:1039200084F8440084F8450084F8460084F8470091
:1039300084F83D00002010BD7047704730B5044644
:10394000022269B1042912D0082917D00C291CD0F1
:10395000102921D094F84300012824D0012030BD43
:1039600094F83E000128F9D184F83E201DE094F837
:103970003F000128F2D184F83F2016E094F840007F
:103980000128EBD184F840200FE094F84100012891
:10399000E4D184F8412008E094F842000128DDD108
:1039A00084F8422001E084F843200122206800F0DE
:1039B0004DFF194B20681949194A984209D088428D
:1039C00007D0904205D0174DA84202D0164DA8420C
:1039D00003D1456C45F400454564206898420CD0FD
:1039E000B0F1804F09D0114B984206D0104B98424D
:1039F00003D0884201D0904207D181680D4A11401E
:103A0000062906D0B1F5803F03D0016841F00101DD
:103A10000160002030BD0000002C01400034014056
:103A200000400140004401400048014000040040C3
:103A3000000800400700010000680349884201D1E6
:103A400003F0A0BC70470000002C0140704790F8C4
:103A50008410012918D0012180F884102421C0F895
:103A6000881001680A680B6823F001030B6022F0DC
:103A7000005100224266036819602021C0F88810B6
:103A800080F88420104670470220704710B5044625
:103A9000D0F88C00202801D0022010BD61B15AB1AD
:103AA0000120E06600202067204601F0ADFB0028E1
:103AB000F3D1E16E012901D0012010BD226810214F
:103AC0001162226852E8001F41F0100142E8001321
:103AD000002BF6D110BD00002DE9F04100681D4A11
:103AE000904235D1EFF3108572B61B4C1B4B01266B
:103AF000A08803F140071EE01A5C0D2A0CD00A2AA8
:103B00000AD0B4F802C0BCF13F0F12D294F800C042
:103B1000BCF1000F06D00CE0628852B1227842B9A5
:103B2000267006E0B4F802C007F80C206288521C28
:103B30006280401C80B28842DED3A18040220749C7
:103B40000748FFF7A3FF08B90020A08085F310887D
:103B5000BDE8F0810044004060000020AC07002078
:103B6000C8030020704770B5044690F8840001280F
:103B70001DD0012084F884002420C4F88800206827
:103B80000568026822F0010202602068826822F063
:103B900060620A438260204601F034F820680560C4
:103BA0002020C4F88800002084F8840070BD022022
:103BB00070BD70B5044690F8840001281DD0012026
:103BC00084F884002420C4F888002068056802680E
:103BD00022F0010202602068826822F060420A43FB
:103BE0008260204601F00EF8206805602020C4F8AD
:103BF0008800002084F8840070BD022070BD7047EA
:103C00007047000010B50068084988420DD1EFF3F5
:103C1000108472B6402206490648FFF737FF10B9F4
:103C200005490020888084F3108810BD00440040BE
:103C3000AC070020C8030020600000202DE9F041FF
:103C400003680446D86919689A6840F60F05284247
:103C50004FF000054FF002060AD187067ED501F02D
:103C6000200702F0805C57EA0C0777D0616F42E1D1
:103C7000B64FDFF8DCC2174001EA0C0C57EA0C0C17
:103C80006CD05FEAC07C0CD05FEAC15C09D54FF014
:103C9000010CC3F820C0D4F8903043F00103C4F8FD
:103CA0009030830709D5D30707D023681E62D4F864
:103CB000903043F00403C4F8903043070AD5D3078B
:103CC00008D0266804233362D4F8903043F002030E
:103CD000C4F8903003070CD501F020033B4308D013
:103CE000266808233362D4F8903043F00803C4F800
:103CF000903003050BD54B0109D526684FF40063BE
:103D00003362D4F8903043F02003C4F89030D4F8F4
:103D10009030002B3DD0800609D501F0200002F044
:103D20008051084303D0616F09B120468847D4F819
:103D3000900021688968490602D410F0280F2AD023
:103D4000204601F0E5F82068806840061ED520680E
:103D5000083050E8001F21F0400100E021E040E879
:103D60000012002AF3D1D4F8800078B17949816338
:103D7000D4F88000FDF7C1FF00280AD0D4F88000F5
:103D8000816B00E02046BDE8F04108472046FFF780
:103D900039FFBDE8F0812046FFF734FFC4F89050AA
:103DA000F7E7D4F86CC02027BCF1010F7ED15FEAA1
:103DB000C06C7BD55FEAC16C78D510201862206892
:103DC0008068400651D5D4F880100A685068000415
:103DD000000C3ED0B4F85C3083423AD9A4F85E00BF
:103DE0000868006880062CD4216851E8000F20F490
:103DF000807041E80002002AF6D12068083050E8BF
:103E0000001F21F0010140E80012002AF5D12068CE
:103E1000083050E8001F21F0400140E80012002A5D
:103E2000F5D1C4F88C70E566216851E8000F20F0E8
:103E3000100041E80002002AF6D1D4F88000FDF716
:103E400027FF2667B4F85C00B4F85E10401A81B210
:103E500007E0B4F85C1081429BD11068800698D5C9
:103E600026672046FFF738FE93E7B4F85C00B4F805
:103E70005E10401A81B2B4F85E00002889D0002993
:103E800087D0226852E8000F20F4907042E80003C7
:103E9000002BF6D12D4BDB432068083050E8002F73
:103EA0001A4040E8002CBCF1000F00E00EE0F3D116
:103EB000C4F88C70E5666567206850E8002F22F032
:103EC000100240E80023002BF6D1C9E7C60209D54D
:103ED000560207D54FF4801018622046BDE8F04125
:103EE000FFF78EBE03060AD501F0800302F400023C
:103EF000134304D0A16F00297FF444AF49E7420681
:103F000011D54A060FD52046016851E8002F22F04E
:103F1000400241E80023002BF6D1C0F88870856785
:103F200000F06CF935E7020206D54A0004D52046B8
:103F3000BDE8F041FFF763BEC00195D5002993DAD3
:103F40002046BDE8F041FFF70DBE00000100001063
:103F500020010004BD4D000810B5040003D0D4F8C2
:103F6000880010B107E0012010BD002084F8840013
:103F7000204600F027F82420C4F888002068016853
:103F800021F001010160A06A10B1204600F05CFE42
:103F9000204600F0FFFF0128E6D02068416821F4A8
:103FA000904141602068816821F02A018160206889
:103FB000016841F0010101602046BDE8104000F0B9
:103FC000A7BE0000F0B597B00646142111A8FCF773
:103FD0008AF944216846FCF786F9314930688842FD
:103FE0005BD102250024684600950294FEF7DAFBB7
:103FF00008B1FCF79BFF2B48816D41F400318165CE
:10400000816D01F400311691C16C41F00201C1646F
:10401000C06C11A900F0020016901820CDE911051E
:104020000320CDE91340072015901F48FEF7BEF886
:104030001F4D1E4805F1080128601B2068601020F4
:10404000802781E891006C61AC61EC6128462C62AC
:10405000FDF7ECFE08B1FCF769FFF567AE621348A7
:10406000144D143028601A20C5E90104C5E903473E
:104070006C61AC61EC6128462C62FDF7D7FE08B19B
:10408000FCF754FFC6F88050002211462620AE628D
:10409000FEF716FA2620FEF705FA17B0F0BD00006D
:1040A00000440040001002400004004808000240A4
:1040B0005C040020BC040020704770472DE9F843E1
:1040C0000446D0F88800984616460D46202802D0AF
:1040D0000220BDE8F883A5B19EB10020C4F890008D
:1040E0002120C4F888001834FEF784F9A687814699
:1040F000E68754F8100C2027183CB0F5805F02D0FA
:1041000003E00120E5E7206910B12E46002510E00C
:1041100000260EE08021204601F0CAF8C0B9DEB1C9
:1041200016F8010B21688862B4F85600401EA4F806
:104130005600B4F856004B464FF00002CDF8008010
:104140000028E7D14FF04001204601F0B1F840B11E
:10415000C4F888700320BCE735F8020BC0F30800F0
:10416000E0E7C4F888700020B3E7000070B50446AB
:10417000D0F88800202801D0022070BD39B332B3B6
:104180002165A4F85420A4F856200021C4F890100A
:104190002120C4F88800E06FD8B1154BC362E36FEB
:1041A00014481863E36F14485863E06F1346816343
:1041B0002068E56F00F128022846216DFDF796FE84
:1041C00038B11020C4F890002020C4F888000120E5
:1041D00070BD2168402008622068083050E8001F48
:1041E00041F0800140E80012002AF5D1002070BDA6
:1041F000C34E0008054F0008CD4D000870477047BA
:10420000022005F0DDFDFEE700EB8100006E00F00E
:10421000F84070478068C0F3C00070478068C0F302
:10422000C00070478068C0F3800070478068C0F3AA
:1042300080007047C06810F4406F01D000207047C4
:1042400001207047042303EAD15310B51844436991
:10425000C1F3045107248C40A3438A4013434361B4
:1042600010BD00EB8100016E21F000411143016699
:104270007047000070B592B000240F9410943C2158
:1042800068461194FCF72FF824484FF0A04101250F
:10429000C0E90014846000F110010426C46081E8C4
:1042A000700004774477056280F8244080F8384035
:1042B000C46380F84040FDF763FB58BB0FA9174863
:1042C0000F94FDF7BBF928BB154800900920CDE9F4
:1042D00001057F200594CDE9030602200890802087
:1042E0008DF824408DF825400A900B908DF82640DB
:1042F0008DF8304069460948FCF710FF50B909486D
:10430000009040F20F10019069460448FCF706FF48
:10431000002801D0FCF70AFE12B070BDA4010020F5
:104320000800900C0010603270B590B03C216846D7
:10433000FBF7D9FF224821490024C0E9001484601A
:1043400000F1100101250426C46081E870000477A3
:104350004477056280F8244080F83840C46380F8D0
:104360004040FDF70DFB28BB164800900920CDE921
:1043700001057F200594CDE90306022008908020E6
:104380008DF824408DF825400A900B908DF826403A
:104390008DF8304069460A48FCF7C0FE50B90A481B
:1043A000009040F20F10019069460548FCF7B6FEF8
:1043B000002801D0FCF7BAFD10B070BD000100501C
:1043C0001002002000008CCB0800900C00B587B0D4
:1043D00014216846FBF787FF2548C16C41F00401B2
:1043E000C164C16C01F004010591C16C41F0200170
:1043F000C164C16C01F020010591C16C41F0010163
:10440000C164C16C01F001010591C16C41F0020170
:10441000C164C06C694600F0020005904FF48060F2
:1044200000904FF404100190002002901148FDF715
:10443000BDFE4FF4807000904FF488100190022070
:10444000029069460C48FDF7B1FE00221146172084
:10445000FEF736F81720FEF725F800220521282060
:10446000FEF72EF82820FEF71DF807B000BD00006B
:104470000010024000080048000400480C4810B535
:104480000A49016000214022C0E901120161017561
:10449000D202426281614FF44042C0E90A21FEF734
:1044A00041F8002801D0FCF741FD10BD0003014098
:1044B0007C0200200C4810B50A490160002140220E
:1044C000C0E9011201610175D202426281614FF4BB
:1044D0004042C0E90A21FEF725F8002801D0FCF788
:1044E00025FD10BD04030140B80200200D4810B5A1
:1044F0000B49016000214022C0E901120122016143
:1045000002755204426281614FF44042C0E90A21BF
:10451000FEF708F8002801D0FCF708FD10BD0000E8
:1045200008030140F402002030B59BB00024199428
:104530001A9417941894149415941C216846169490
:10454000FBF7D1FE342107A8FBF7CDFE38483749E9
:10455000C0E90014202181604FF4A651C1604FF4DE
:10456000807101610121416180218161FEF761FE5D
:10457000002853D14FF48050179017A92C48FEF70C
:10458000A7FEE0BB2A48FFF7A6F9C0BB7025CDE91E
:10459000145414A926481694FEF7FCFD78BB60203D
:1045A000CDE9000402940394049405940022694622
:1045B0001F480694FFF7FDF808BB042269461C4813
:1045C000FFF7F7F8D8B9082269461948FFF7F1F85C
:1045D000A8B941F2BF40CDE900500C226946144809
:1045E000FFF7E7F858B94FF4006007904010CDE9A5
:1045F00008043F20CDE90A044FF4005000E00DE02C
:10460000CDE90C0400030E94CDE90F4011941294EF
:1046100007A907481394FEF76BFD08B1FCF786FC69
:104620000348FFF773F81BB030BD0000002C0140B9
:104630003003002010B58CB024216846FBF753FEF0
:104640000024164809940A9413490B94C0E90014F5
:104650004FF6FF71C0E90241046184610320CDE996
:1046600000040120CDE902040F210491CDE90540A9
:10467000CDE9074169460948FEF7AAFE38B9099411
:1046800009A906480B94FEF785FD002801D0FCF728
:104690004DFC0CB010BD0000000800407C03002061
:1046A000134810B511490160124941600021816031
:1046B0000C22C160C0E904128161C16101624162E2
:1046C0008162FFF749FC70B900210948FFF771FAD0
:1046D00048B900210648FFF746FA20B90448FFF719
:1046E000B6F9002801D0FCF721FC10BD00440040C1
:1046F000C8030020A02E6300032005F061FBFEE745
:10470000012005F05DFBFEE770477047FDF778BEBE
:1047100010B594B038216846FBF7E5FD14210EA8CA
:10472000FBF7E1FD0020FDF7D7FF0120009000041A
:10473000019002200324CDE907045521CDE90901A8
:104740000821CDE90B100D906846FEF7B7FA60B965
:104750000F20CDE90E04002010901190129004213A
:104760000EA8FEF763F9002801D0FCF7DFFB14B0B8
:1047700010BD00000248016841F4700101607047FB
:1047800088ED00E00148FEF7EFBE00003003002096
:104790002DE9F0430268264B264D274E274C4FF05B
:1047A0008049984207D0484505D0A84203D0B0427E
:1047B00001D0A04203D122F070074A683A43204F4B
:1047C000DFF880C0DFF8808098420DD048450BD0DC
:1047D000A84209D0B04207D0A04205D0B84203D0C9
:1047E000604501D0404503D122F44075CA682A4390
:1047F0004D6922F080022A4302608A68C2620A6818
:104800008262984207D0A04205D0B84203D06045EA
:1048100001D0404501D1096901630121416101696C
:10482000C90703D0016921F001010161BDE8F083EE
:10483000002C01400004004000080040003401400A
:1048400000400140004401400048014010B501F023
:104850001F030121046A99408C430462016A9A4053
:104860001143016210BD10B5846842EA032224F4AA
:104870007F440A432243826010BD00008268034BDC
:104880001A400A4342F00701816070478FFFCFFF53
:104890002DE9F043056A026A22F0010202624368D0
:1048A00082691C4C25F0020522400C6822F00302AC
:1048B00014438A68194E2A43174D194FDFF864C014
:1048C000DFF86490A84207D0B04205D0B84203D0C8
:1048D000604501D0484506D122F00808CA6842EA7E
:1048E000080222F00402A84207D0B04205D0B84224
:1048F00003D0604501D0484505D14D6923F440738C
:104900001D438B692B4343608461496841630262A4
:10491000BDE8F0838FFFFEFF002C01400034014012
:10492000004001400044014000480140F0B5056AE4
:10493000026A22F01002026242688369194C1B4E1F
:1049400023400C6823F4407343EA042425F0200339
:104950008D6843EA0513144DA84201D0B04206D138
:10496000CF6823F0800343EA071323F04003A842F3
:104970000AD0B04208D00E4DA84205D00D4DA84235
:1049800002D00D4DA84207D14D6922F4406242EA9F
:1049900085028D6942EA85024260846149688163CB
:1049A0000362F0BDFF8FFFFE002C01400034014088
:1049B000004001400044014000480140F0B5056A54
:1049C000026A22F4807202624368C269194C1B4E6B
:1049D00022400C6822F00302144325F400728D6813
:1049E00042EA0522144DA84201D0B04206D1CF6858
:1049F00022F4006242EA072222F48062A8420AD02E
:104A0000B04208D00E4DA84205D00E4DA84202D0AB
:104A10000D4DA84207D14D6923F4405343EA0513D5
:104A20008D6943EA05134360C4614968C16302624A
:104A3000F0BD00008FFFFEFF002C0140003401405C
:104A4000004001400044014000480140F0B5056AC3
:104A5000026A22F4805202624268C369194C1B4EFA
:104A600023400C6823F4407343EA042425F40053E4
:104A70008D6843EA0533144DA84201D0B04206D1F7
:104A8000CF6823F4004343EA073323F48043A8426A
:104A90000AD0B04208D00E4DA84205D00D4DA84214
:104AA00002D00D4DA84207D14D6922F4404242EA9E
:104AB00085128D6942EA85124260C46149680164C9
:104AC0000362F0BDFF8FFFFE002C01400034014067
:104AD00000400140004401400048014030B5056AF3
:104AE000026A22F4803202624268036D114C234054
:104AF0000C681C4325F400330D8943EA05430E4D31
:104B0000A8420BD00D4DA84208D00D4DA84205D0AB
:104B10000C4DA84202D00C4DA84204D14D6922F49C
:104B2000803242EA0522426004654968816403627A
:104B300030BD00008FFFFEFF002C0140003401401B
:104B400000400140004401400048014030B5046A83
:104B5000026A22F4801202624268036D114D24F44D
:104B600000142B400D6843EA05230D8944EA0554DF
:104B70000D4DA8420BD00D4DA84208D00C4DA842B7
:104B800005D00C4DA84202D00B4DA84204D14D696E
:104B900022F4802242EA8522426003654968C164AA
:104BA000046230BDFF8FFFFE002C01400034014045
:104BB00000400140004401400048014010B5036A34
:104BC000046A24F001040462846924F0F00444EAD5
:104BD000021423F00A020A438461026210BD10B578
:104BE000036A046A24F010040462846923F0A003B9
:104BF00024F4704444EA023243EA01118261016202
:104C000010BD000030B5416EB9B10268916892687C
:104C1000C1F342610B4B520F9C5CE50003F10804A9
:104C2000A25CB5FBF2F2A0F86A205A5C615CD2008B
:104C3000B2FBF1F1A0F8681030BD0121A0F86A10B4
:104C4000F8E7000014A1000890F82810090706D51D
:104C500001684A68836B22F400421A434A6090F864
:104C60002810C90706D001684A68C36A22F40032D6
:104C70001A434A6090F82810890706D501684A68E7
:104C8000036B22F480321A434A6090F828104907D7
:104C900006D501684A68436B22F480221A434A60B1
:104CA00090F82810C90606D501688A68C36B22F4FB
:104CB00080521A438A6090F82810890606D5016848
:104CC0008A68036C22F400521A438A6090F8281014
:104CD000490611D501684A68436C22F480121A43D0
:104CE0004A60416CB1F5801F06D101684A68836C47
:104CF00022F4C0021A434A6090F82810090606D52B
:104D000001684A68C06C22F4002202434A6070477E
:104D10002DE9F84300260446C0F89060FDF76AFBD1
:104D20008046206800684FF0200500076FF07E473E
:104D300013D54346002229042046009700F0B8FA14
:104D400058B1216851E8000F20F0800041E80002CE
:104D5000002AF6D1C4F8885021E020680068400796
:104D600022D5434600224FF480012046009700F0F0
:104D70009FFAC8B1216851E8000F20F4907041E813
:104D80000002002AF6D12068083050E8001F21F008
:104D9000010140E80012002AF5D1C4F88C5084F8D3
:104DA00084600320BDE8F883C4F88850C4F88C50B0
:104DB00044F86C6F666026760020F3E710B5806AD1
:104DC0000021A0F85E10FEF71DFF10BD70B5846ACB
:104DD000D4F88800D4F88C50216889684FF0000618
:104DE000090606D5212804D1A4F85660204600F013
:104DF000B9F820688068400606D5222D04D1A4F8B1
:104E00005E60204600F084F8D4F8900040F0100076
:104E1000C4F890002046FEF7F5FE70BD10B50146BF
:104E2000806A096809684FF0000289062DD4A0F84D
:104E30005E20036853E8001F21F4807143E80014EA
:104E4000002CF6D10168083151E8003F23F001033E
:104E500041E80034002CF5D10168083151E8003FE9
:104E600023F0400341E80034002CF5D12021C0F8A4
:104E70008C10C16E012908D1016851E8003F23F070
:104E8000100341E80034002CF6D10267C16E0129FD
:104E900002D0FFF711F910BDB0F85C10FEF71CFE50
:104EA00010BD10B5806A01210167C16E012902D0D1
:104EB000FFF703F910BDB0F85C104908FEF70CFECF
:104EC00010BD10B50146806A09680968890616D4C4
:104ED0000021A0F856100168083151E8002F22F097
:104EE000800241E80023002BF5D1026852E8001F40
:104EF00041F0400142E80013002BF6D110BDFFF74E
:104F00007DF910BD10B5806AFFF779F910BD00007A
:104F100010B5026852E8001F21F4907142E80013B6
:104F2000002BF6D10E4B0268083252E8001F1940E0
:104F300042E80014002CF6D1C16E012908D10168A5
:104F400051E8002F22F0100241E80023002BF6D197
:104F50002021C0F88C100021C166416710BD0000FF
:104F6000FEFFFFEF026852E8001F21F0C00142E897
:104F70000013002BF6D10168083151E8002F22F40C
:104F8000000241E80023002BF5D12021C0F8881051
:104F9000704700002DE9F0410446016880682269ED
:104FA000E3691043626900251A431043DFF82CC2FD
:104FB0000A688B4B1A4002430A6020684168E26825
:104FC00021F44051114341602168A069614501D03D
:104FD000226A10438A68834B1A4002438A60206821
:104FE000C16A626A21F00F011143C1627E492368E0
:104FF0007E488B420DD1D0F8880010F0030006D017
:10500000012855D0022842D003283FD152E0012088
:105010003DE077498B420BD1D0F8880010F00C00AE
:1050200035D0042833D0082840D00C282ED141E0B8
:1050300070498B420BD1D0F8880010F0300026D098
:10504000102835D0202831D030281FD132E06A49CD
:105050008B420BD1D0F8880010F0C00017D0402848
:1050600026D0802822D0C02810D123E063450DD15E
:10507000D0F8880010F4406009D0B0F5806F17D0E8
:10508000B0F5006F12D0B0F5406F13D010205B491F
:105090005B4F00264FF4004263453BD160B10228CC
:1050A00013D004280BD0082872D10DE00220EEE7BF
:1050B0000420ECE70820EAE7FDF7A6FD01E0FDF794
:1050C000C7FD010001D17CE01146606A37F810206D
:1050D0006768B1FBF2F007EB4703834270D8B0EB8F
:1050E000073F6DD8002308461946FBF791F80902DF
:1050F00041EA106102027808101871413A46002313
:10510000FBF786F83F4AA0F54071914258D82168D4
:10511000C86056E0E3694FF6EF7893422CD1092836
:105120004ED2DFE800F00508114D0D4D4D4D100039
:10513000FDF76AFD01E0FDF779FD010004D140E0D3
:10514000FDF786FDF9E71146606A37F81000B1FBFC
:10515000F0F04100606801EB5001B1FBF0F0A0F10C
:10516000100141452CD84FF6F0710140C0F34200C8
:1051700001432068C16024E0092821D2DFE800F063
:10518000050912200E2020201100FDF73DFD02E050
:1051900016E0FDF74BFD010004D112E0FDF758FDCC
:1051A000F9E71146606A37F81000B1FBF0F160686A
:1051B00001EB5001B1FBF0F0A0F1100141450AD91B
:1051C00001250120A4F86A0024F8680F2846E6604B
:1051D0002661BDE8F08180B299E7000000800040C0
:1051E000F369FFCFFFF4FF110038014000100240C7
:1051F0000044004000480040004C00400024F400FF
:10520000FCA00008FFFC0F0070B58165A0F85C20D1
:1052100000210446C0F890102220C4F88C00D4F875
:105220008000F0B11F4BC362D4F880301E48186371
:10523000D4F880301D485863D4F880001346816349
:10524000A56D21682A462431D4F88000FCF74EFE73
:1052500038B11020C4F890002020C4F88C00012040
:1052600070BD206940B1216851E8000F40F48070A2
:1052700041E80002002AF6D12068083050E8001FFB
:1052800041F0010140E80012002AF5D12068083001
:1052900050E8001F41F0400140E80012002AF5D11B
:1052A000002070BD1D4E0008A34E0008CD4D000823
:1052B0002DE9F047994617460D4604464FF0000881
:1052C000089E33E0701C31D0FDF794F8A0EB090084
:1052D000B04218D8BEB120680168490726D5802D94
:1052E00024D0402D22D0C169C94309070DD4082517
:1052F00005622046FFF70CFEC4F8905084F88480C5
:105300000120BDE8F0870320FBE7C069C04300052A
:105310000CD421684FF4006008622046FFF7F8FDC6
:105320002020C4F8900084F88480ECE72068C069ED
:1053300035EA000004D00020B842C3D00020E0E7E6
:105340000120F9E70148FEF779BC0000C8030020FE
:10535000052004F035FDFEE70FB4054B10B503A999
:10536000044A029800F094F910BC5DF814FB0000A8
:105370002D980008040100207CB5491E1C461546E6
:10538000CDE90001044B6A462146284600F080F929
:10539000009A002111707CBDBF5D00080907090E4D
:1053A000002804DB00F1E02080F80014704700F0D2
:1053B0000F0000F1E02080F8141D704710B52DEDAE
:1053C000028BF0EE408A18EE900AB0EE608A20F070
:1053D0000040C0F1FF40C00F07D118EE100A20F0C6
:1053E0000040C0F1FF40C00F2BD018EE101A18EE8D
:1053F000900AFBF73CFA00EE100A10EE100A6FEA72
:10540000D05010F0FF0F04BFBDEC028B10BD18EEA2
:10541000900A00F0004110EE100A00F000408142B6
:1054200004BFBDEC028B10BD18EE101A10EE100A6E
:10543000BDEC028B61F31E0000EE900A30EE600AB4
:1054400010BD18EE900A4FF07F41B1EB400F1CBF2A
:1054500018EE100A5FEA4000C7D1012000F058F8AA
:10546000BDEC028BBDE8104000F03AB810B52DED50
:10547000028BB1EEC08A18EE100A20F00040C0F195
:10548000FF40C00F0AD010EE100A20F00040C0F11B
:10549000FF40C00F04BF012000F03AF8B0EE480A08
:1054A000BDEC028B10BD000000B583B09FED0A0B70
:1054B0000A4601468DED000B6846FBF76EF99DED3F
:1054C000000B51EC100BFBF70BF903B000EE100AC8
:1054D00000BD00000000000000000000000000000F
:1054E000DFED020A80EEA00A704700000000000015
:1054F00002E008C8121F08C1002AFAD1704770479D
:10550000002001E001C1121F002AFBD170470000FA
:105510000149086070470000080100202DE9FF5F85
:10552000DDE90220010DDDF838B0024318D044F661
:105530001050A1F2FF3141430D140F98012820D0E3
:10554000A5EB0B00401C5FEA000A4FF00004474E39
:10555000DFF81C91A046504616D5CAF1000728E096
:105560000F98012443A2012808D0002100980F9B26
:10557000C0E90021C0E90243BDE8FF9F6FEA0B01CB
:10558000F4E7CBF10000DEE7074612E0F80707D0AA
:105590002246334640464946FAF795FF80468946FB
:1055A0002246334610461946FAF78DFF04460E464A
:1055B0007F10002FEAD1DDE90201BAF1000F424667
:1055C0004B4602DAFAF77FFF01E0FAF7EEFF0446F6
:1055D0000E460022284BFBF76BF803D84FF0FF3044
:1055E000014607E00022254B20463146FAF7C4FE6B
:1055F000FBF7C3F9102409E0002C0ADB0A22002380
:10560000FAF706FE019B30321A55641E50EA010279
:10561000F2D1641C019AC4F1110314440F9A012AB7
:1056200003D0012208430DD10AE0084304D0002032
:105630004FF0110B0F9080E7A3EB0B056D1E0DE0F3
:105640005B4504DD4FF0000205F1010504E003DADB
:105650004FF00002A5F10105002AECD000980F9947
:10566000C0E90231C0E9004586E70000000024409F
:105670000000F03F300000000000F0430000E03F79
:1056800030380A2801D201207047002070470000FE
:105690002DE9FF4F95B09B468946064600250FE24F
:1056A000252877D100242746F84A0121059400E0F7
:1056B000044316F8013F203B01FA03F01042F7D1F2
:1056C00030782A2811D06FF02F033078A0F1300203
:1056D000092A16D8059A44F0020402EB820203EB71
:1056E00042021044761C0590EFE759F8042B05920E
:1056F000002A03DA504244F40054059044F00204B6
:10570000761C30782E2816D116F8010F44F00404C8
:105710002A280DD06FF02F023078A0F13003092B2A
:1057200009D807EB870302EB4303C718761CF3E79E
:1057300059F8047B761C30786C280FD006DC4C2896
:1057400017D068280DD06A2814D104E0742810D02E
:105750007A280FD10DE044F400140AE044F48014D8
:1057600001E044F440147278824202D104F58014BE
:10577000761C761C307866280BD013DC582877D03E
:1057800009DC002875D04528F6D04628F4D04728F3
:105790001AD19DE118E0632835D0642879D06528B6
:1057A00012D195E1702873D008DC6728F1D0692800
:1057B0006FD06E280DD06F2806D1B5E073282CD09D
:1057C000752875D0782874D05A46179990476D1C63
:1057D00075E1C4F30250022809D003280DD0D9F88E
:1057E000001004280DD00D6009F1040967E1D9F813
:1057F0000010EA17C1E90052F6E7D9F800100D8051
:10580000F2E70D70F0E719F8041B8DF80010002086
:105810008DF80100EA46012003E059F804AB4FF08F
:10582000FF3061074FF0000102D40DE008F10101E3
:105830008846B9420FDA8045F8DB1AF808100029CB
:10584000F4D108E008F1010188468142FADB1AF838
:1058500008100029F6D105985B46A0EB0807214601
:105860003846179A00F094FA284400EB080507E040
:105870004DE029E10DE01AF8010B5A4617999047BF
:10588000B8F10108F7D25B4621463846179A13E172
:1058900042E00A220092C4F302524FF0000A022AA8
:1058A00008D059F804CB032A4FEAEC710AD00DE076
:1058B00029E02AE009F1070121F00702F2E802C11C
:1058C000914609E00FFA8CFC4FEAEC71042A03D1EF
:1058D0004FFA8CFC4FEAEC71002907DA0A460021E6
:1058E000DCF1000C61EB02012D2202E0220504D55F
:1058F0002B228DF80420012203E0E20701D02022B0
:10590000F7E7904659E00A2102E010220DE010214D
:105910004FF0000A00910BE010224FF0000A44F013
:1059200004040827009203E008224FF0000A0092C6
:10593000C4F30252022A05D059F804CB0021032AED
:1059400008D009E009F1070121F00702F2E802C1DD
:10595000914605E01FFA8CFC042A01D10CF0FF0CE3
:105960004FF00008220728D5702806D0009B83F04E
:10597000100353EA0A0305D00EE040228DF80420FC
:10598000012208E05CEA010206D030228DF80420F2
:105990008DF8050002229046009B83F0080353EA2D
:1059A0000A030AD15CEA010201D1620705D530225F
:1059B0008DF804204FF001087F1E582804D034A031
:1059C00003900EA802900DE036A0F9E7534660461A
:1059D000009AFAF71DFC84460398825C0298401EE8
:1059E000029002705CEA0100F0D1029806A9081A40
:1059F00000F1200A600702D524F4803400E001277A
:105A0000574502DDA7EB0A0000E0002000EB0A0189
:105A1000009005984144401A0590E00306D45B4687
:105A20002146179A059800F0B3F90544002706E0CF
:105A300001A85A46C05D179990476D1C7F1C4745C9
:105A4000F6DBE0030CD55B462146179A059800F07B
:105A50009FF9054404E030205A46179990476D1C81
:105A60000099481E00900029F5DC08E00298029990
:105A70005A460078491C0291179990476D1CBAF15B
:105A80000001AAF1010AF1DC65E10000092801002A
:105A900030313233343536373839616263646566A4
:105AA0000000000030313233343536373839414266
:105AB000434445460000000000F058F90544761CB8
:105AC000307800287FF4ECAD19B02846BDE8F08F9F
:105AD000620700D4062709F1070222F0070CFCE850
