:020000040800F2
:10000000D8090020ED010008A9390008A93400082A
:10001000A1390008A9040008A94400080000000054
:10002000000000000000000000000000B3390008DC
:100030006B05000800000000B1390008B539000860
:10004000070200080702000807020008070200086C
:10005000070200080702000807020008070200085C
:10006000070200080702000807020008B1040008A0
:10007000BD04000807020008070200080702000884
:100080000702000800000000E5030008070200085E
:1000900007020008070200080702000875050008AB
:1000A000070200082D3A00080702000807020008AE
:1000B00007020008070200080702000807020008FC
:1000C00007020008070200080702000807020008EC
:1000D00007020008070200089D4400080702000804
:1000E0006D05000807020008070200080702000863
:1000F00007020008070200080702000800000000CD
:1001000000000000070200080000000007020008CD
:1001100007020008000000000702000807020008AC
:10012000070200080702000807020008070200088B
:10013000070200080000000000000000070200089D
:10014000070200080702000800000000000000008D
:10015000000000000000000000000000000000009F
:10016000000000000000000000000000070200087E
:10017000070200080000000000000000000000006E
:10018000000000000702000800000000000000005E
:10019000000000000000000000000000000000005F
:1001A000000000000000000007020008070200082D
:1001B000070200080702000807020008000000000C
:1001C000000000000702000800000000000000001E
:1001D0000702000807020008DFF80CD000F0F0F872
:1001E00000480047C15E0008D80900200648804743
:1001F00006480047FEE7FEE7FEE7FEE7FEE7FEE70C
:10020000FEE7FEE7FEE7FEE71D3A0008D901000819
:100210002DE9F05F0546002092469B46884606463B
:10022000814640241BE0284641464746224600F0CE
:1002300057F853465A46C01A914110D311461846F2
:10024000224600F016F82D1A67EB01084F462246A9
:100250000120002100F00DF817EB00094E41201E8F
:10026000A4F10104DFDC484631462A464346BDE896
:10027000F09F202A04DB203A00FA02F100207047A8
:100280009140C2F1200320FA03F3194390407047D4
:10029000D2B201E000F8012B491EFBD270470022C8
:1002A000F6E710B513460A4604461946FFF7F0FF75
:1002B000204610BD30B50B46014600202022012407
:1002C00009E021FA02F59D4205D303FA02F5491B24
:1002D00004FA02F52844151EA2F10102F1DC30BD3A
:1002E000202A04DB203A21FA02F00021704721FA8B
:1002F00002F3D040C2F120029140084319467047F2
:100300000029A8BF7047401C490008BF20F0010029
:10031000704710B4B0FA80FC00FA0CF050EA010407
:1003200004BF10BC704749B1CCF1200421FA04F499
:1003300011FA0CF118BF012121430843A3EB0C0172
:10034000CB1D4FEA00614FEA102042BF002010BCD5
:10035000704700EBC35010440029A4BF10BC704785
:10036000401C490008BF20F0010010BC7047F0B4E9
:1003700000F0004221F0004120F00040CE0DC30DFE
:10038000C1F3160141F40001C0F316004C421546BA
:1003900040F40000761E09E010EB440002D582F024
:1003A000004240428842F7D840005B1EB342F9DA6F
:1003B00018B1F0BC0021FFF7ACBF2846F0BC704775
:1003C000064C074D06E0E06840F0010394E80700A2
:1003D00098471034AC42F6D3FFF702FF2C6D0008AB
:1003E0004C6D000810B5114C2068C0F3801030B17E
:1003F0004020206004F0B6FB08B105F053FC4FF03C
:10040000A0410868C0F380224FF4806002B1086008
:100410002168C1F3802101B12060054800F0FCFB98
:10042000BDE81040034800F0F7BB00000001005099
:100430003C010020A801002070B5044600688168D6
:100440008268C1F3400112F0010F28D039BB8168E6
:1004500001F00D01012914D18168124A1140891C53
:10046000816021680320086001F09AF9054612E0D6
:1004700001F096F9401B02280DD920688068C0075A
:1004800009D0E06D40F01000E065206E40F0010002
:100490002066012070BD20688068C007E8D1002078
:1004A00070BD0000C0FFFF7F042005F07FFEFEE767
:1004B000014800F0E0BE0000F4030020014800F015
:1004C000DABE0000540400200D4902688A4201D2BD
:1004D0000C4901E00B492031D2B21423083AB2FB97
:1004E000F3F2436C02F01F0223F00303194481640A
:1004F00004498031C16401219140016570470000C9
:1005000008040240000802400179074A02EB810218
:100510004265054A4432491E826501F01F020121ED
:100520009140C16570470000FC08024030B5D0E939
:1005300013456560446D14B1D0E91645656090F8C7
:10054000444004F01F050124AC40056C6C60046855
:1005500063608368102B036803D099600068C260F1
:1005600030BD9A600068C16030BD70474FF4806054
:1005700000F0E6BF4FF4807000F0E2BF062005F007
:1005800015FE72B6FEE70000F8B500260446009698
:1005900090F858000D4601280BD0012084F858002F
:1005A0002046FFF749FF0100E06D04D040F0100045
:1005B0002AE00220F8BD20F4885040F00200E065F7
:1005C00020688268134B1A4005F080431A4342F0BA
:1005D00000428260104A20680EE0009B5B1C009382
:1005E000934209D3E06D20F0020040F01000E06576
:1005F00084F858600120F8BD8368DB0FEDD1E06D11
:1006000020F0020040F00100E06584F858600846E0
:10061000F8BD0000C0FFFF3F02DE0400704700008D
:100620002DE9F84F4FF000080446CDF800800D4644
:1006300094F85820DFF8EC93616947464046012A58
:100640000AD00126F84A84F8586041B1296A012984
:1006500005D0A36EEBB129E00220BDE8F88F6868F1
:10066000092838D1A96A4FF4785041B12B6801F0BC
:100670007C0100EA53400843E96A084302E0296824
:1006800000EA51402168CB6C13400343CB646066A1
:1006900021E0C4E91971A96A286A31B101F07C012D
:1006A000401E0843E96A084300E0401E29682B7990
:1006B000C1F3846103F01F0399400143A06E401E03
:1006C000A066636E43EA0103636604D12068C16CCF
:1006D00011401943C164206802F0F4FE58B995F83E
:1006E000250098B12068C16895F8262021F44011B2
:1006F00041EA4251C160206802F0ECFE8246206867
:1007000002F0E0FE5AEA00000DD0FBE095F826006A
:1007100095F82410400540EA01512068C26822F48F
:1007200040121143E6E7A86A30B1E86A20B195F8B3
:10073000250001285ED003E095F82500012804D0AB
:100740002068C16821F0007103E02068C16841F0B1
:100750000071C16095F83000012852D0206801690D
:1007600021F002010161AA6829682068B2F1004FF6
:1007700038D002F0BBFE2068416921F000414161A0
:1007800020686969C268C2F3C102520091402A69B7
:10079000042A44D000EB82002B68026EDFF88CC282
:1007A00003F0F84302EA0C020B431A4342F0004103
:1007B000016620682A69A96900EB8200026E22F0B6
:1007C00080720A430266297F22682869012923D0A2
:1007D0005FF0000102EB8000026E22F000720A431B
:1007E00002668FE0002202F081FE2068416941F03C
:1007F0000041C4E7E06D40F02000E0654FF00108E3
:10080000A8E7D5E90D1001432068026922F4FF72C0
:1008100042F002021143A5E74FF00071DAE7002130
:1008200002F046FE400320684FF0000172D002F053
:100830003FFE90FAA0F0B0FA80F1286842036ED033
:1008400090FAA0F0B0FA80F0814204D10022114663
:10085000206802F05AFE0121206802F029FE4003C0
:1008600020684FF001015DD002F022FE90FAA0F066
:10087000B0FA80F12868420359D090FAA0F0B0FA9B
:1008800080F0814204D100220121206802F03DFE67
:100890000221206802F00CFE400320684FF00201A4
:1008A00048D002F005FE90FAA0F0B0FA80F1286876
:1008B000420344D090FAA0F0B0FA80F0814204D113
:1008C00000220221206802F020FE0321206802F0AD
:1008D000EFFD400320684FF0030133D002F0E8FD44
:1008E00090FAA0F0B0FA80F1286842032FD090FA75
:1008F000A0F0B0FA80F0814204D1002203212068E8
:1009000002F003FE2068816811F0010F22D0B6E0EA
:1009100000E004E002F0CCFDC0F384618DE7C0F399
:10092000846091E702F0C4FDC0F38461A2E7C0F3E4
:100930008460A6E702F0BCFDC0F38461B7E7C0F3B2
:100940008460BBE702F0B4FDC0F38461CCE7C0F380
:100950008460D0E72A7B296850F8B03FC1F3120CBD
:1009600023EA0C0302F0180C314A22FA0CF20A4076
:1009700013430360E96849457ED1286841031BD0D1
:1009800090FAA0F1B1FA81F1491C01F01F01092987
:100990004FEA403131D8002911D090FAA0F1B1FAD4
:1009A00081F100BF01F1010101F01F0106FA01F61A
:1009B00008D1C0F3846109E0C0F38461E4E7C0F3C7
:1009C0008461EFE790FAA0F1B1FA81F101F1010140
:1009D00001F01F0146EA816102D1C0F3846003E0A7
:1009E00090FAA0F0B0FA80F000F1010000F01F00D2
:1009F00000EB400041EA00513BE000290ED090FAA4
:100A0000A0F1B1FA81F100BF01F1010101F01F0174
:100A100006FA01F60ED1C0F384610FE0C0F38461E1
:100A2000F2E7000000007F400040100400F0FF03E8
:100A3000FFFF070090FAA0F1B1FA81F101F1010185
:100A400001F01F0146EA816102D1C0F3846003E036
:100A500090FAA0F0B0FA80F000F1010000F01F0061
:100A60002B4A00EB400002EB005041EA000141F04C
:100A70000071AA68206800E001E002F037FD254817
:100A80002A68024240D024488168244B01F0E0717A
:100A90009A4202D0224B9A421BD10B0219D42268EF
:100AA000B2F1A04F30D1826841F4000122F0E0722F
:100AB0000A4382601B481C490068B0FBF1F0801CAF
:100AC00000EB4000800000E0401E00900028FBD1B9
:100AD0001AE0164D164BAA4207D1CD0105D4226863
:100AE0009A4211D041F0807109E0124DAA420BD117
:100AF0004A0209D422689A4206D041F480018268F1
:100B000022F0E0720A43826084F858704046A4E5FF
:100B1000000020FE0000088000030050000021C3F8
:100B20001000C09058000020400D0300000052C784
:100B300000010050000084CB704770477047704739
:100B40002DE9F047044690F858009CB00E464FF04F
:100B50000009012822D0012084F8580000251795AB
:100B6000189520684FF0A048404519D1274F0097AD
:100B7000384602F0AFFC8246206802F0ABFC50EA37
:100B80000A0115D0E06D40F02000E0654FF001094A
:100B900084F8585048461CB0BDE8F0870220FAE7B8
:100BA000E06D40F02000E06584F858500120F2E745
:100BB0001748316840F61F720029816821F46041AE
:100BC00016D094F8383041EA433173681943816094
:100BD000D8F80810BB6801F0010103F001031943C4
:100BE000D6D1B368316819438368934319430BE046
:100BF0008160D8F80810BB6801F0010103F001031F
:100C00001943C5D1816891438160C1E7000100505B
:100C100000030050704770472DE9F05F04460068FC
:100C200006684568DFF854B2DBF8080000F01F07DB
:100C3000B0070ED5A8070CD5E06DC00603D4E06D53
:100C400040F40060E0652046FFF7E8FC21680220E0
:100C50000860DFF82CA270074FF0A04801D56807A4
:100C600003D4300737D5280735D5E06DC00603D447
:100C7000E06D40F40070E065206802F02FFC20B3C6
:100C80002068504501D1424600E00246824208D029
:100C90003FB1052F05D0092F03D0504503D1414660
:100CA00002E0C16801E00146C96889040DD4016809
:100CB00009070AD502F00AFC58B3E06D40F01000B5
:100CC000E065206E40F0010020662046FFF7A2FF9D
:100CD00021680C200860B00601D5A80603D4700670
:100CE00058D5680656D5E06DC00603D4E06D40F4D3
:100CF0000050E0652068C16C11F4C07F1AD000215B
:100D0000894602F0EBFB02462068504514D1434669
:100D100013E02068416821F00C014160E06D20F48F
:100D20008070E065E06DC004CFD4E06D40F001005C
:100D3000E065CAE70121E3E70346834208D03FB1FB
:100D4000062F05D0072F03D0504503D1414602E0BE
:100D5000C16801E00146C968B9F1000F14D08B01E8
:100D600002D58AB18A040FD4026852060CD58902D2
:100D70000AD402F0A3FBE8B3E06D40F01000E06598
:100D8000206E40F0010020662046FFF7D5FE216866
:100D90006020086030060BD5280609D5E06D40F4C8
:100DA0008030E065204600F069F921688020086005
:100DB000F0050CD5E8050AD5E06D40F40030E0659B
:100DC0002046FFF7BBFE21684FF480700860B00535
:100DD0000CD5A8050AD5E06D40F48020E0652046DA
:100DE000FFF7ADFE21684FF400700860F0062ED5C5
:100DF000E80600E008E02AD5E06BD0B1AFB1DBF83F
:100E0000080000F4604013E02068416821F06001B0
:100E10004160E06D20F48050E065E06DC005B3D422
:100E2000E06D40F00100E065AEE72068C068C007F3
:100E300050B1E06D40F48060E065206E40F002004B
:100E400020662046FFF7E7FE216810200860700545
:100E500012D5680510D5E06D40F48040E065206E45
:100E600040F00800206621684FF48060086020464A
:100E7000BDE8F05FFFF761BEBDE8F09F00030050E2
:100E800000010050F8B54FF0000504002E46009513
:100E900002D0E06D10B107E00120F8BD204600F05F
:100EA000EFF8266684F8586020688168C1F34071C5
:100EB00019B18168694A1140816020688168C1F375
:100EC000007189B98168664A114041F080518160A2
:100ED000644865490068B0FBF1F04000801C00E008
:100EE000401E00900028FBD120688168C1F300718A
:100EF00041B9E16D41F01001E165216E41F0010160
:100F00002166012502F0E2FA0646E06D00F01001CC
:100F1000E06D314305D040F01000E0650125284622
:100F2000F8BD20F4807040F00200E0652068806821
:100F300010F0010F11D14FF0A04080684B4900F034
:100F40000100896801F00101084306D14848616841
:100F5000826822F47C120A438260E168E06B627F5F
:100F60000843A16841EA4231084394F8241040EA5A
:100F70000140012904D1218D3E4A02EB4141084341
:100F8000E16A29B101F47871226B014342EA010060
:100F90002268D168384B19400143D160206801694B
:100FA000626B21F0406111430161206802F086FA12
:100FB00006432ED1207F94F83810800340EA410286
:100FC0002168C86844F2020398431043C86020694E
:100FD0000028206801690AD041F48031016120684D
:100FE00050F8C01F22696FF30D01114307E021F48F
:100FF00080310161206850F8C01F6FF30D0101605E
:1010000094F8400001280CD02068016921F001010A
:101010000161606901282068016B21F00F0111D086
:1010200013E0D4E911010843D4E913121143084332
:1010300021680A6940F2FC739A43104340F00100B2
:101040000861E6E7226A521E11430163E06D20F059
:10105000020040F00100E06561E70000C0FFFF5FB3
:10106000C0FFFF7F58000020400D0300000100502A
:10107000000300500000FEFF0740F0FF7047000033
:101080002DE9F04198B00446142111A8FFF707F9A3
:1010900044216846FFF703F94FF40041206800251A
:1010A0004A03384F0326384C4FF09048B0F1A04F18
:1010B00010D0364B984261D10F926846009100F0F3
:1010C00047FD08B1FFF75AFA3868401C386001281C
:1010D00034D03BE00F926846009100F039FD08B132
:1010E000FFF74CFA3868401C3860012807D1E06CE3
:1010F00040F40050E064E06C00F400501690E06CA6
:1011000040F00100E064E06C00F001001690E06C3B
:1011100040F00200E064E06C139500F002001690CD
:101120000420CDE9110611A9404600F015FA02206D
:101130001395CDE9110611A9154815E0E06C40F4AE
:101140000050E064E06C00F400501690E06C40F059
:101150000100E064E06C139500F00100169040205F
:10116000CDE9110611A9404600F0F6F9002202214E
:10117000122000F07BFB122000F06AFB18B0BDE8E3
:10118000F0810000480000200010024000010050E3
:101190000004004810B590F8253000210122022BF0
:1011A00003D00421C163012122E003681C6824F0FC
:1011B0000E041C60836C1C6824F480741C6003683B
:1011C0001C6824F001041C6090F84430046C03F0A7
:1011D0001F0302FA03F36360D0E913345C60436DCC
:1011E00033B11C6824F480741C60D0E916345C6050
:1011F00080F82520002280F82420084610BD70B514
:1012000090F82520002401212346022A07D0042239
:10121000C26380F8251080F82430012429E0026898
:10122000156825F00E0515600268156825F00105A2
:101230001560826C156825F48075156090F844205F
:10124000056C02F01F0201FA02F26A60D0E9132570
:101250005560426D32B1156825F480751560D0E98E
:101260001625556080F8251080F82430816B01B177
:101270008847204670BDF0B4016C0C6801680D68A9
:1012800090F8442002F01F06042202FA06F32342DB
:1012900011D06B070FD50B689B0603D40B6823F0A6
:1012A00004030B6090F8441001F01F018A40016CA8
:1012B0004A60016B1DE0022303FA06F727424FF054
:1012C000000C4FF0010218D0AF0716D50C68A40629
:1012D00005D40C6824F00A040C6080F8252090F8EE
:1012E000441001F01F018B40016C4B6080F824C05A
:1012F000C16A00291AD0F0BC08470823B340234232
:1013000014D02B0712D50B6823F00E030B6090F856
:101310004410036C01F01F0102FA01F15960C2632D
:1013200080F8252080F824C0416BE2E7F0BC7047CC
:1013300070B504000CD02B4A21681420914209D2C8
:10134000294A0A44B2FBF0F08000606427480AE0B2
:10135000012070BD234A52420A44B2FBF0F08000E3
:101360006064204808382064022084F825000A6858
:1013700047F6F0708243D4E902031843D4E90435F8
:101380002B431843A3691843E3691843236A18439E
:10139000104308602046FFF797F8A0680025B0F5D5
:1013A000804F00D16560A16C20790860D4E91301F9
:1013B00041606068401E032808D82046FFF7A4F863
:1013C000606D0560D4E91601416002E06565A565C0
:1013D000E565E563012084F8250084F824500020A9
:1013E00070BD000008040240F8FFFDBF000002408D
:1013F00070B5044690F82400002501280CD0012087
:1014000084F8240094F825600020012E06D084F88A
:1014100024000225284670BD022070BD022684F8F3
:101420002560E0632068066826F001060660204615
:10143000FFF77CF8206B00282068016802D041F09B
:101440000E0106E021F0040101602068016841F00E
:101450000A010160A06C0168C90303D5016841F469
:1014600080710160606D18B1016841F480710160A4
:101470002068016841F001010160CBE770B50446C6
:1014800000F08EF90546601C02D004484068044410
:1014900000F086F9401BA042FAD370BD4C0000203A
:1014A00010B5234CB0F5806F09D0B0F5807F3DD1E9
:1014B000E068401CE060BDE8104003F007BA00F0AF
:1014C0006FF92169411AC82930D9206104F0A0F9C7
:1014D00098B104F09DF9012828D1002004F094FB74
:1014E00004F09EFA134803781348027813480178F1
:1014F000BDE81040112004F071BF03F05DFD00282D
:1015000014D0207810B103F02DFF58B1207800B12D
:10151000012004F01FFB012004F076FBBDE8104021
:1015200004F09EBABDE8104003F036BF10BD0000C5
:10153000340000206A0000207000002069000020B4
:10154000044910B50A68024202D00860FFF7A8FFFC
:1015500010BD0000140401402DE9F04FDFF8209287
:10156000002301260324A9F1040B85B00F2709F1FC
:10157000040AABF1040EFAE006FA03F52A407CD027
:1015800091F804C00CF0030CBCF1010F02D0BCF1C7
:10159000020F26D1D0F808C0CDF800C04FEA430CA6
:1015A00004FA0CF8CDF810C0DDF800C02CEA080CE5
:1015B000CDF800C0D1F80C80DDF810C008FA0CF8A6
:1015C000DDF800C048EA0C08C0F80880D0F804C074
:1015D0002CEA050C0D79C5F300159D4045EA0C0574
:1015E00045600D79ED43AD070ED0C5684FEA43085D
:1015F00004FA08FC25EA0C05D1F808C00CFA08FC2E
:101600004CEA050CC0F80CC00D7905F00305022D5D
:1016100016D1DD0800EB850CCDF808C0DCF8208081
:101620005D074FEAD56C07FA0CF528EA05080D6945
:1016300005FA0CF5DDF808C045EA0805CCF820509D
:1016400005684FEA430CCDF808C004FA0CFC25EA03
:101650000C0591F804C00CF00308DDF808C008FA86
:101660000CF848EA0508C0F800804D6815F4403FC2
:101670007CD0444DD5F860C000E077E04CF0010C20
:10168000C5F860C02D6E23F0030C05F00105009530
:101690003D4D65440295AD684FEA837C4FEA1C7866
:1016A00007FA08FC25EA0C05B0F1904F06D0DFF8E8
:1016B000DCC0604505D14FF0010C20E04FF0000C7C
:1016C0001DE0DFF8CCC0604502D14FF0020C16E0FF
:1016D000DFF8C0C0604502D14FF0030C0FE0DFF827
:1016E000B8C0604502D14FF0040C08E0DFF8ACC090
:1016F000604502D14FF0050C01E04FF0060C0CFAEA
:1017000008FC4CEA050C029DC5F808C0D9F8005049
:10171000CC46D1F8048095435FEAC82800D515432C
:10172000CCF80050DAF80050D446D1F80480954344
:101730005FEA882800D51543CCF80050DBF800504C
:10174000DC46D1F8048095435FEA883800D515431C
:10175000CCF80050DEF80050F446D1F804809543F0
:101760005FEAC83800D51543CCF800505B1C0A6806
:1017700032FA03F57FF400AF05B0BDE8F08F00004A
:10178000080401400010024000000140000400482D
:1017900000080048000C00480010004800140048F1
:1017A00001488068704700004C00002002488168B2
:1017B00042681144816070474C00002010B500243D
:1017C000032000F073F80F2000F008F808B101249E
:1017D00001E000F025F8204610BD000070B50E4E67
:1017E00005460024706898B14FF47A71B1FBF0F0AF
:1017F0000A490968B1FBF0F000F038FE40B9102D3D
:1018000006D200222946501E00F030F8356000E074
:101810000124204670BD00004C000020580000202C
:101820000A4882B0016E41F001010166016E01F0CB
:1018300001010091816D41F080518165806D00F062
:101840008050009002B000F07BB900000010024010
:10185000002809DB00F01F020121914040098000AF
:1018600000F1E020C0F8001170470000F0B40E4B0A
:101870001B680C46C3F30223C3F10705042D00D9EE
:101880000425191D072901D2002300E0DB1E0126D3
:1018900006FA05F1491E214099409E40761E1640E9
:1018A0003143F0BC02F08ABE0CED00E0064900F0C6
:1018B000070208684FF6FF03184040EA0220034A77
:1018C00010430860704700000CED00E00000FA05CE
:1018D000F8B504004FF0000514D094F83A0005283C
:1018E00010D094F83A0002280CD03448016E41F030
:1018F00001010166006E00F00100009094F83A00CA
:1019000010B104E00120F8BD002084F83900204621
:1019100000F058F8A0682A4A4FF48071402836D069
:10192000602834D020680368E66A23F0100333434C
:101930000360D4E901031843D4E903363343184361
:10194000237D012B00D000210843616A0843A16A6E
:101950000843218E40EAC14094F8341040EA016106
:1019600020680368134019430160206881690029D9
:1019700009DBD4E906121143226A836923F03F038D
:101980001A431143816194F83A0090B114E0206841
:101990000368E66A23F0100333430360D4E90103CC
:1019A0001843267D2369012E00D000210B431843E4
:1019B000CBE7012084F83A002846F8BD0010024029
:1019C000113E00E030B587B0044614216846FEF7AA
:1019D00066FC24681D4D00221D4903234FF09040F2
:1019E000AC4209D1CC6C44F00104CC64C96C01F068
:1019F000010105910E210CE0144D2D1DAC4211D1B9
:101A0000CC6C44F00104CC64C96C01F00101059177
:101A1000E021CDE9001302924FEA0D01FFF79CFD92
:101A200007B030BD094808308442F9D1C86C40F095
:101A30000200C864C86C694600F0020005900720E7
:101A4000CDE9000302920348E8E7000000030140EB
:101A50000010024000040048002138B190F83A20FC
:101A6000052A03D090F83A20012A02D00121084625
:101A700070470268136843F001031360042280F882
:101A80003A20F4E72B492C4B0A6832214A432B4970
:101A900040B1B0F5007F086829D020F4C06040F460
:101AA00080602CE00868C0F34120022804D051F87F
:101AB000800F20F4807022E0D1F8800020F4807044
:101AC000C1F88000086820F4C06040F4007008602D
:101AD000B2FBF3F0401C00E0401E4A69520501D5FC
:101AE0000028F9D1486940050AD503207047C0F3A2
:101AF0004120022806D051F8800F40F48070086021
:101B000000207047D1F8800040F48070C1F8800058
:101B1000086820F4C06040F400700860B2FBF3F085
:101B2000401C00E0401E4A695205DBD50028F9D16F
:101B3000D8E700005800002040420F00007000402D
:101B40000248816841F48041816070470070004024
:101B50002DE9F8430446006800269D4D00035ED53C
:101B6000A86D0027C00008D4A86D40F08050A8657B
:101B7000A86D012700F080500090DFF85892D9F846
:101B8000001041F48071C9F80010FFF709FE80468B
:101B900006E000BFFFF704FEA0EB080002282BD8E8
:101BA000D9F80000C005F5D5D5F8900010F44070C4
:101BB00014D0216C814211D0D5F89000D5F8901046
:101BC00020F4407041F48031C5F89010D5F89010A1
:101BD00021F48031C5F89010C5F89000C00711D0ED
:101BE000FFF7DEFD804641F2883907E0FFF7D8FDB8
:101BF000A0EB0801494501D903260BE0D5F8900078
:101C00008007F3D5D5F89000216C20F4407008438C
:101C1000C5F890001FB1A86D20F08050A86520780D
:101C2000C00707D0D5F88800616820F0030008439A
:101C3000C5F888002078800707D5D5F88800A16806
:101C400020F00C000843C5F888002078400707D52D
:101C5000D5F88800E16820F030000843C5F8880016
:101C60002078000707D5D5F88800216920F0C0004A
:101C70000843C5F888002078800607D5D5F8880085
:101C8000616920F440600843C5F888002078400668
:101C900007D5D5F88800A16920F440500843C5F85D
:101CA00088002078000607D5D5F88800E16920F47F
:101CB00040400843C5F888002088C00507D5D5F8FE
:101CC0008800216A20F440300843C5F88800208845
:101CD000800507D5D5F88800616A20F440200843C4
:101CE000C5F88800208840050FD5D5F88800A16A7E
:101CF00020F440100843C5F88800A06AB0F5801FA2
:101D000003D1E86840F48010E860208800050FD512
:101D1000D5F88800E16A20F440000843C5F888003F
:101D2000E06AB0F5800F03D1E86840F48010E86005
:101D30002088C0040FD5D5F88800216B20F04070B2
:101D40000843C5F88800206BB0F1807F03D1E868B4
:101D500040F48010E86020884FF0006180040ED5C8
:101D6000D5F88800626B20F040601043C5F8880009
:101D7000606B884203D1E86840F48010E8602088F6
:101D800040040ED5D5F88800A26B20F040601043C7
:101D9000C5F88800A06B884203D1E86840F4801041
:101DA000E860208800040FD5D5F88800E16B20F0AA
:101DB00040500843C5F88800E06BB0F1805F03D164
:101DC000E86840F48030E8603046BDE8F883000001
:101DD00000100240007000402DE9F0470E4605005B
:101DE0004FF0000725D0DFF8AC81D8F8000000F0F4
:101DF0000F00B0420CD2D8F8001021F00F0131438F
:101E0000C8F80010D8F8000000F00F00B04210D160
:101E10002968614CC80741F2883A5AD06868DFF8EF
:101E20007C91032808D0022820682DD04005002886
:101E30002CDB0120BDE8F08720688001F9D5E0683F
:101E400000F00302E068C0F30310401C032A19D01D
:101E5000534A00BFB2FBF0F0E268C2F306225043DF
:101E6000E268C2F34162521C5200B0FBF2F04845F6
:101E700017D9A06810F0F00F0CD0880711D5A8680A
:101E800040B10EE0474AE5E78003D0E700F0B6F83E
:101E9000484506D9A06820F0F00040F08000A0601E
:101EA0008027A068696820F003000843A060FFF75E
:101EB00077FC814606E000BFFFF772FCA0EB09014A
:101EC00051453AD8A068696800F00C00B0EB810F6A
:101ED000F2D12868810714D5400703D5A06840F4E3
:101EE000E060A0602878000705D5A06820F4605065
:101EF00040F4E060A060A068A96820F0F00008430A
:101F000004E0802F03D1A06820F0F000A060D8F892
:101F10000010404601F00F01B14216D9016821F0CE
:101F20000F0131430160FFF73BFC074607E000BFAC
:101F3000FFF736FCC11B514501D903207AE7D8F8D9
:101F4000000000F00F00B042F2D12878400705D51C
:101F5000A068E96820F4E0600843A06028780007E2
:101F600006D5A068296920F4605040EAC100A0604D
:101F700000F044F8A1680C4AC1F30311515C01F070
:101F80001F01C8400949086009480068BDE8F047DA
:101F9000FFF724BC002002400010024000B4C4043B
:101FA0000024F40000127A00106500085800002098
:101FB0004C0000200548064900688968054AC1F3BD
:101FC0000221515C01F01F01C840704758000020F9
:101FD000001002402065000805480649006889682D
:101FE000054AC1F3C221515C01F01F01C84070478E
:101FF000580000200010024020650008184910B564
:102000008868C0F381021748012A0BD08A68431000
:10201000C2F38102022A06D08A68C2F38102032A2F
:1020200003D0002010BD184610BDCA6802F003049A
:10203000CA68C2F30312521C032C02D0B0FBF2F0A8
:1020400001E0B3FBF2F0CA68C968C2F3062250434C
:10205000C1F34161491C4900B0FBF1F010BD000023
:10206000001002400024F4002DE9F84304007AD067
:102070002078F84DC00747D0A868E96800F00C0048
:1020800001F003010C2802D0082817D001E0032931
:1020900014D06068B0F5803F17D0B0F5A02F286845
:1020A00017D020F480302860286820F48020286031
:1020B0006068E0B1FFF774FB064614E0286880030F
:1020C00022D560680028D2D01EE0286840F4803015
:1020D000EDE740F480202860F7E700BFFFF760FBE2
:1020E000801B642870D828688003F7D50CE0FFF7C0
:1020F00057FB064605E000BFFFF752FB801B642834
:10210000F0D828688003F7D4207880074CD5A868D9
:10211000E96800F00C0001F003010C2802D004284B
:102120000DD001E002290AD0E068002828682BD0F1
:1021300040F480702860FFF733FB064619E02868FA
:10214000400502D5E068002891D06868217C20F025
:10215000FE4040EA01606860BF480068FFF73EFB50
:10216000002800D120E072E1FFF71AFB801B022853
:10217000B8D828684005F7D56868217C20F0FE4073
:1021800040EA016068600FE020F480702860FFF78B
:1021900007FB064605E000BFFFF702FB801B022895
:1021A000A0D828684005F7D42078000729D56069B1
:1021B0000028D5F8940013D040F00100C5F8940031
:1021C000FFF7EEFA064606E090E000BFFFF7E8FAF8
:1021D000801B022886D8D5F894008007F6D510E039
:1021E00020F00100C5F89400FFF7DAFA064604E093
:1021F000FFF7D6FA801B022878D8D5F8940080071C
:10220000F6D42078400761D5A86D0026C00008D418
:10221000A86D40F08050A865A86D012600F08050A0
:1022200000908E480168C90511D40168804641F4C8
:1022300080710160FFF7B4FA074604E0FFF7B0FAD7
:10224000C01B022852D8D8F80000C005F6D5A068F7
:10225000012815D00528D5F8900016D020F00100EF
:10226000C5F89000D5F8900020F00400C5F8900063
:10227000A06841F28838B8B1FFF792FA07460EE03D
:10228000D5F8900040F00100F0E740F00400C5F8F8
:102290009000F5E7FFF784FAC11B414526D8D5F831
:1022A00090008007F6D50CE0FFF77AFA074604E0C5
:1022B000FFF776FAC11B414518D8D5F89000800782
:1022C000F6D41EB1A86D20F08050A8652078800655
:1022D00029D5A0690028D5F8980013D040F0010056
:1022E000C5F89800FFF75CFA064606E075E000BF07
:1022F000FFF756FA801B02286FD8D5F898008007A0
:10230000F6D510E020F00100C5F89800FFF748FA74
:10231000064604E0FFF744FA801B02285DD8D5F892
:1023200098008007F6D4E069F0B3A968C1F3810191
:1023300003295DD00228286820F08070286003D02F
:10234000FFF72EFA04464BE0FFF72AFA064604E0B0
:10235000FFF726FA801B02283FD828688001F7D4AF
:10236000F4E908016FF00F0202EB01110843218A22
:102370005204490802EB4151A26841EA0221084394
:10238000217D4FF07E42490802EB41610843217BE9
:1023900040EAC160E968324A11400843E8602868B1
:1023A00040F08070286000E05EE0E86840F08070F7
:1023B000E860FFF7F5F9044605E000BFFFF7F0F924
:1023C000001B022809D828688001F7D54CE000BF1F
:1023D000FFF7E6F9001B022802D90320BDE8F883C5
:1023E00028688001F4D4E8681E490840E8603BE0B2
:1023F0000128F3D0E868226A00F00301914226D157
:10240000616A00F0F0020901103991421FD1A26AFD
:1024100000F4FE41B1EB022F19D194F82C2000F00A
:102420007841B1EBC26F12D1218E00F4C00249088D
:102430004905A1F50011914209D194F8341000F03A
:10244000C06049084906A1F1007181420CD0012009
:10245000C4E70000001002404C0000200070004063
:102460000C809F01FCFFEEFE0020B7E710B5401E78
:10247000B0F1807F01D3012010BD4FF0E0246061F6
:102480000F21601702F09AF80020A0610720206158
:10249000002010BD704770477047000030B590F8BD
:1024A0003C20012A42D0012280F83C20CA688B6877
:1024B00022F440721A434B6822F480621A430B687C
:1024C00022F400621A430B6922F480521A434B69CA
:1024D00022F400521A430B6B22F480421A430B8BF6
:1024E00022F4702242EA0342CB6922F080521A435E
:1024F0000F4D03680024AB4202D00E4DAB4210D109
:102500000D8D22F4700242EA05520D6A22F08072AB
:102510002A434D6A22F000722A43C96A22F000520F
:102520000A435A6480F83C40002030BD022030BD90
:10253000002C014000340140704770477047000094
:10254000F0B590F83C20012A3AD0012580F83C50A3
:10255000022280F83D2003685A689C68194E1A4F81
:10256000B34201D0BB4204D122F4700C4A6842EA63
:102570000C02DFF858C002EA0C02D1F800C04CEAA5
:10258000020CC3F804C00268B2420DD0B2F1804F11
:102590000AD00F4B9A4207D00E4B9A4204D0BA424F
:1025A00002D00D4B9A4204D1896824F0800319436C
:1025B000916080F83D50002180F83C100846F0BD45
:1025C0000220F0BD002C0140003401408FFFFFFDD0
:1025D000000400400008004000400140704710B572
:1025E000040003D094F83D0010B107E0012010BDB5
:1025F000002084F83C00204600F022F8022084F8F5
:102600003D00211D206801F017FA012084F84800E0
:1026100084F83E0084F83F0084F8400084F84100CC
:1026200084F8420084F8430084F8440084F84500AC
:1026300084F8460084F8470084F83D00002010BD6F
:1026400008B500680B49884212D10B48016E41F46D
:1026500000610166006E002200F4006000901146E7
:102660001920FFF703F9BDE808401920FFF7F0B87B
:1026700008BD0000002C01400010024070B5044667
:1026800090F83C000025012814D0012684F83C6015
:10269000022084F83D0022689068364B184020F4F0
:1026A0007F409060086870282ED010DC10F00F0F6B
:1026B00003D021E04FF0020070BD4FEA2012072A3C
:1026C0001AD2DFE802F0525252524A3840002A4BE6
:1026D000C21A984249D009DCB0F5805F0DD0B0F540
:1026E000005F1CD0B0F1101F06D13EE0102A3CD094
:1026F000202A3AD0502A38D0012584F83D600020A5
:1027000084F83C00284670BDCB68D1E901212068DF
:1027100001F0FDF92068816841F0770109E0CB689C
:10272000D1E90121206801F0F2F92068816841F4C3
:1027300080418160E1E7CA684968206801F092FB46
:102740005021206806E0CA684968206801F09BFBB8
:102750006021206801F0E6F9CFE7CA68496820687F
:1027600001F080FB40212068F4E722680146104612
:10277000F0E7000088FFCEFF200010002DE9F041B7
:102780000D46040003D094F83D0018B108E0012084
:10279000BDE8F081002084F83C00204600F042F8BB
:1027A000022084F83D00206881681D4A1140816044
:1027B000211D206801F040F9226890689169166A2D
:1027C0002B68AF69034340F20330814341EA07219C
:1027D000A868EF6908434FF6FC418843E96840EA7E
:1027E0000720014328692F6A000140EA07300843A7
:1027F00069686D6926F0AA0646EA051529439360C3
:102800002268906154F8480B0162012004F81F0906
:102810006075A075E076207720750020B8E700008D
:10282000F8BFFEFF10B586B0044614216846FDF7D8
:1028300036FD1149206888421CD11048816D41F055
:1028400004018165816D01F004010591C16C41F0C5
:102850000201C164C06C002100F002000590C0209C
:1028600000900220CDE90101CDE90310694604483A
:10287000FEF772FE06B010BD0008004000100240D6
:102880000004004870B590F83E60044690F83F5050
:1028900090F8443090F84520022021B104290ED050
:1028A000012E1BD114E0012E18D1012B16D184F872
:1028B0003E0084F8440001220021206820E0012D20
:1028C0000CD1012A0AD184F83F0084F8450014E0B5
:1028D000012D03D1012B01D1012A01D0012070BDAE
:1028E00084F83E0084F83F0084F8440084F84500F2
:1028F00001220021206801F0FDF801220421206856
:1029000001F0F8F82068016841F001010160002041
:1029100070BD70472DE9F04104460068C66805693E
:102920004FF00007A90713D5B10711D5F91E0161B2
:1029300001202077206880698007204602D0FFF7B9
:10294000E8FF04E000F00AF9204600F0CCF9277710
:10295000680716D5700714D521686FF00400086168
:10296000022020772068806910F4407F204602D042
:10297000FFF7CFFF04E000F0F1F8204600F0B3F9D4
:102980002777280715D5300713D521686FF0080081
:102990000861042020772068C0698007204602D0A3
:1029A000FFF7B7FF04E000F0D9F8204600F09BF9EC
:1029B0002777E80616D5F00614D521686FF01000C9
:1029C0000861082020772068C06910F4407F204605
:1029D00002D0FFF79EFF04E000F0C0F8204600F0B0
:1029E00082F92777E80708D0F00706D021686FF052
:1029F00001000861204600F0F5F9280601D4A8047A
:102A000008D5300606D521686FF4025008612046CB
:102A1000FFF741FDE80508D5300606D521686FF4BB
:102A2000807008612046FFF735FD680608D57006FE
:102A300006D521686FF040000861204600F0DCF9FF
:102A4000A80608D5B00606D521686FF020000861F9
:102A50002046FFF721FDE80208D5F00206D52168DF
:102A60006FF4801008612046FFF767FDA80208D5C3
:102A7000B00206D521686FF4001008612046FFF708
:102A80005BFD680208D5700206D521686FF48000EE
:102A900008612046FFF752FD28020AD5300208D50A
:102AA00021686FF4000008612046BDE8F041FFF79F
:102AB00095BDBDE8F081000030B587B00446142113
:102AC0006846FDF7ECFB2149206888423CD120484C
:102AD000C16C41F00401C164C16C01F004010591B5
:102AE000C16C41F00201C164C16C01F002010591A9
:102AF000C16C41F00101C164C06C022400F001000E
:102B000005904FF40050CDE9000404250294694675
:102B10001048CDE90345FEF71FFDA003CDE90004F1
:102B2000029469460C48CDE90345FEF715FD4FF4C4
:102B3000B850CDE9000406200294CDE9034069466F
:102B40004FF09040FEF708FD07B030BD002C01406B
:102B5000001002400008004800040048704770B5AB
:102B6000044690F83C0000260D4601280BD00120B9
:102B700084F83C000C2A4AD007DC82B1042A20D019
:102B8000082A06D131E0022070BD102A53D0142A41
:102B900063D00126002084F83C00304670BD2068D8
:102BA00000F0CAFF2068816941F008018161206856
:102BB000816921F004018161206881692A691143DA
:102BC00011E0206801F006F82068816941F4006195
:102BD00081612068816921F4806181612068816957
:102BE0002A6941EA02218161D4E7206801F03AF8BC
:102BF0002068C16941F00801C1612068C16921F004
:102C00000401C1612068C1692A69114311E020688B
:102C100001F070F82068C16941F40061C161206869
:102C2000C16921F48061C1612068C1692A6941EAF2
:102C30000221C161AEE7206801F0A4F82068016DAF
:102C400041F0080101652068016D21F00401016572
:102C50002068016D2A69114311E0206801F0CAF86B
:102C60002068016D41F4006101652068016D21F467
:102C7000806101652068016D2A6941EA02210165D0
:102C800088E710B5040003D094F83D0010B107E0C8
:102C9000012010BD002084F83C00204600F022F8FE
:102CA000022084F83D00211D206800F0C5FE0120AF
:102CB00084F8480084F83E0084F83F0084F840001F
:102CC00084F8410084F8420084F8430084F844000A
:102CD00084F8450084F8460084F8470084F83D00F5
:102CE000002010BD7047704730B50446022269B11C
:102CF000042912D0082917D00C291CD0102921D062
:102D000094F84300012824D0012030BD94F83E00FF
:102D10000128F9D184F83E201DE094F83F000128F5
:102D2000F2D184F83F2016E094F840000128EBD15E
:102D300084F840200FE094F841000128E4D184F8A1
:102D4000412008E094F842000128DDD184F84220B7
:102D500001E084F843200122206800F0CBFE194BEB
:102D600020681949194A984209D0884207D09042F0
:102D700005D0174DA84202D0164DA84203D1456C8C
:102D800045F400454564206898420CD0B0F1804F6E
:102D900009D0114B984206D0104B984203D088427C
:102DA00001D0904207D181680D4A1140062906D012
:102DB000B1F5803F03D0016841F0010101600020BE
:102DC00030BD0000002C01400034014000400140B3
:102DD0000044014000480140000400400008004059
:102DE0000700010000680349884201D102F0E8B9F8
:102DF00070470000002C0140704790F884100129B2
:102E000018D0012180F884102421C0F888100168AE
:102E10000A680B6823F001030B6022F000510022C6
:102E20004266036819602021C0F8881080F8842069
:102E300010467047022070477047704770B50446CF
:102E400090F8840001281DD0012084F884002420FB
:102E5000C4F8880020680568026822F00102026058
:102E60002068826822F060620A438260204601F096
:102E70001DF8206805602020C4F88800002084F830
:102E8000840070BD022070BD70B5044690F88400C7
:102E900001281DD0012084F884002420C4F8880073
:102EA00020680568026822F00102026020688268DA
:102EB00022F060420A438260204600F0F7FF20685B
:102EC00005602020C4F88800002084F8840070BDCC
:102ED000022070BD704770477047014651F8880F57
:102EE00049680843704700002DE9F0410368044633
:102EF000D86919689A6840F60F0528424FF0000516
:102F00004FF002060AD187067ED501F0200702F0B5
:102F1000805C57EA0C0777D0616F42E1B64FDFF86B
:102F2000DCC2174001EA0C0C57EA0C0C6CD05FEACB
:102F3000C07C0CD05FEAC15C09D54FF0010CC3F82E
:102F400020C0D4F8903043F00103C4F890308307D8
:102F500009D5D30707D023681E62D4F8903043F018
:102F60000403C4F8903043070AD5D30708D0266875
:102F700004233362D4F8903043F00203C4F8903055
:102F800003070CD501F020033B4308D02668082333
:102F90003362D4F8903043F00803C4F8903003054E
:102FA0000BD54B0109D526684FF400633362D4F882
:102FB000903043F02003C4F89030D4F89030002BC8
:102FC0003DD0800609D501F0200002F08051084371
:102FD00003D0616F09B120468847D4F8900021687A
:102FE0008968490602D410F0280F2AD0204601F043
:102FF0008FF82068806840061ED52068083050E8A9
:10300000001F21F0400100E021E040E80012002A0A
:10301000F3D1D4F8800078B179498163D4F8800085
:10302000FEF7EDF800280AD0D4F88000816B00E0AC
:103030002046BDE8F04108472046FFF74DFFBDE8B8
:10304000F0812046FFF748FFC4F89050F7E7D4F826
:103050006CC02027BCF1010F7ED15FEAC06C7BD52C
:103060005FEAC16C78D5102018622068806840063D
:1030700051D5D4F880100A6850680004000C3ED086
:10308000B4F85C3083423AD9A4F85E00086800685E
:1030900080062CD4216851E8000F20F4807041E8AC
:1030A0000002002AF6D12068083050E8001F21F005
:1030B000010140E80012002AF5D12068083050E8EC
:1030C000001F21F0400140E80012002AF5D1C4F8A9
:1030D0008C70E566216851E8000F20F0100041E88F
:1030E0000002002AF6D1D4F88000FEF753F82667D4
:1030F000B4F85C00B4F85E10401A81B207E0B4F88E
:103100005C1081429BD11068800698D526672046C6
:10311000FFF792FE93E7B4F85C00B4F85E10401A33
:1031200081B2B4F85E00002889D0002987D02268D7
:1031300052E8000F20F4907042E80003002BF6D113
:103140002D4BDB432068083050E8002F1A4040E840
:10315000002CBCF1000F00E00EE0F3D1C4F88C703D
:10316000E5666567206850E8002F22F0100240E80D
:103170000023002BF6D1C9E7C60209D5560207D5B0
:103180004FF4801018622046BDE8F041FFF7A3BE5F
:1031900003060AD501F0800302F40002134304D0B1
:1031A000A16F00297FF444AF49E7420611D54A06D2
:1031B0000FD52046016851E8002F22F0400241E877
:1031C0000023002BF6D1C0F88870856700F06AF9FB
:1031D00035E7020206D54A0004D52046BDE8F04195
:1031E000FFF778BEC00195D5002993DA2046BDE8E7
:1031F000F041FFF722BE0000010000102001000492
:103200006540000810B5040003D0D4F8880010B160
:1032100007E0012010BD002084F88400204600F063
:1032200027F82420C4F888002068016821F00101F3
:103230000160A06A10B1204600F05AFE204600F05E
:10324000A9FF0128E6D02068416821F4904141603F
:103250002068816821F02A0181602068016841F0BE
:10326000010101602046BDE8104000F0A5BE00004D
:10327000F0B597B00646142111A8FDF710F84421C7
:103280006846FDF70CF83149306888425BD1022569
:103290000024684600950294FEF75AFC08B1FDF739
:1032A0006DF92B48816D41F400318165816D01F428
:1032B00000311691C16C41F00201C164C06C11A9CA
:1032C00000F0020016901820CDE911050320CDE989
:1032D0001340072015901F48FEF73EF91F4D1E486A
:1032E00005F1080128601B2068601020802781E814
:1032F00091006C61AC61EC6128462C62FEF718F815
:1033000008B1FDF73BF9F567AE621348144D143070
:1033100028601A20C5E90104C5E903476C61AC6166
:10332000EC6128462C62FEF703F808B1FDF726F998
:10333000C6F88050002211462620AE62FEF796FAAB
:103340002620FEF785FA17B0F0BD000000440040CB
:10335000001002400004004808000240F40300206E
:10336000540400202DE9F8430446D0F8880098461C
:1033700016460D46202802D00220BDE8F883A5B1EC
:103380009EB10020C4F890002120C4F888001834B1
:10339000FEF706FAA6878146E68754F8100C202728
:1033A000183CB0F5805F02D003E00120E5E720691A
:1033B00010B12E46002510E000260EE080212046A8
:1033C00001F022F8C0B9DEB116F8010B216888625D
:1033D000B4F85600401EA4F85600B4F856004B4608
:1033E0004FF00002CDF800800028E7D14FF04001F7
:1033F000204601F009F840B1C4F888700320BCE70A
:1034000035F8020BC0F30800E0E7C4F8887000202C
:10341000B3E7000070B50446D0F88800202801D03A
:10342000022070BD39B332B32165A4F85420A4F84A
:1034300056200021C4F890102120C4F88800E06FC5
:10344000D8B1154BC362E36F14481863E36F144897
:103450005863E06F134681632068E56F00F128022E
:103460002846216DFDF7C4FF38B11020C4F8900044
:103470002020C4F88800012070BD21684020086227
:103480002068083050E8001F41F0800140E8001239
:10349000002AF5D1002070BDC54000080741000892
:1034A0007540000870477047022002F07FFEFEE77B
:1034B00000EB8100006E00F0F84070478068C0F3B8
:1034C000C00070478068C0F3C00070478068C0F3D8
:1034D000800070478068C0F380007047C06810F4B7
:1034E000406F01D00020704701207047042303EA99
:1034F000D15310B518444369C1F3045107248C40DB
:10350000A3438A401343436110BD00EB8100016E69
:1035100021F00041114301667047000070B592B080
:1035200000240F9410943C2168461194FCF7B7FED8
:1035300024484FF0A0410125C0E90014846000F147
:1035400010010426C46081E87000047744770562A6
:1035500080F8244080F83840C46380F84040FDF78C
:1035600091FC58BB0FA917480F94FDF7E9FA28BB47
:10357000154800900920CDE901057F200594CDE98B
:1035800003060220089080208DF824408DF8254005
:103590000A900B908DF826408DF830406946094816
:1035A000FDF73EF850B90948009040F20F10019025
:1035B00069460448FDF734F8002801D0FCF7DEFF27
:1035C00012B070BD3C0100200800900C0010603269
:1035D00070B590B03C216846FCF761FE2248214955
:1035E0000024C0E90014846000F1100101250426C4
:1035F000C46081E8700004774477056280F8244055
:1036000080F83840C46380F84040FDF73BFC28BB9D
:10361000164800900920CDE901057F200594CDE9E9
:1036200003060220089080208DF824408DF8254064
:103630000A900B908DF826408DF8304069460A4874
:10364000FCF7EEFF50B90A48009040F20F100190CD
:1036500069460548FCF7E4FF002801D0FCF78EFF1F
:1036600010B070BD00010050A801002000008CCBFC
:103670000800900C00B587B014216846FCF70FFED7
:103680002548C16C41F00401C164C16C01F0040122
:103690000591C16C41F02001C164C16C01F02001B1
:1036A0000591C16C41F00101C164C16C01F00101DF
:1036B0000591C16C41F00201C164C06C694600F023
:1036C000020005904FF4806000904FF404100190C8
:1036D000002002901148FDF73FFF4FF480700090EA
:1036E0004FF4881001900220029069460C48FDF7C3
:1036F00033FF002211461720FEF7B8F81720FEF717
:10370000A7F8002205212820FEF7B0F82820FEF7B0
:103710009FF807B000BD00000010024000080048FC
:10372000000400480C4810B50A49016000214022FD
:10373000C0E9011201610175D202426281614FF458
:103740004042C0E90A21FEF7C3F8002801D0FCF787
:1037500015FF10BD00030140140200200C4810B5F5
:103760000A49016000214022C0E90112016101758E
:10377000D202426281614FF44042C0E90A21FEF761
:10378000A7F8002801D0FCF7F9FE10BD04030140A2
:10379000500200200D4810B50B4901600021402265
:1037A000C0E9011201220161027552044262816185
:1037B0004FF44042C0E90A21FEF78AF8002801D000
:1037C000FCF7DCFE10BD0000080301408C02002065
:1037D00030B59BB0002419941A941794189414943B
:1037E00015941C2168461694FCF759FD342107A84E
:1037F000FCF755FD38483749C0E9001420218160A5
:103800004FF4A651C1604FF4807101610121416103
:1038100080218161FEF7E3FE002853D14FF48050F0
:10382000179017A92C48FEF729FFE0BB2A48FFF79D
:1038300028FAC0BB7025CDE9145414A92648169463
:10384000FEF77EFE78BB6020CDE90004029403946D
:1038500004940594002269461F480694FFF77FF9F7
:1038600008BB042269461C48FFF779F9D8B9082239
:1038700069461948FFF773F9A8B941F2BF40CDE98D
:1038800000500C2269461448FFF769F958B94FF403
:10389000006007904010CDE908043F20CDE90A04FC
:1038A0004FF4005000E00DE0CDE90C0400030E944D
:1038B000CDE90F401194129407A907481394FEF71D
:1038C000EDFD08B1FCF75AFE0348FFF7F5F81BB011
:1038D00030BD0000002C0140C802002010B58CB0A3
:1038E00024216846FCF7DBFC0024164809940A945E
:1038F00013490B94C0E900144FF6FF71C0E902416F
:10390000046184610320CDE900040120CDE90204B3
:103910000F210491CDE90540CDE9074169460948E9
:10392000FEF72CFF38B9099409A906480B94FEF755
:1039300007FE002801D0FCF721FE0CB010BD0000EE
:103940000008004014030020134810B5114901601D
:1039500012494160002181600C22C160C0E904125B
:103960008161C161016241628162FFF74BFC70B904
:1039700000210948FFF788FA48B900210648FFF7F7
:103980005DFA20B90448FFF738FA002801D0FCF7A7
:10399000F5FD10BD0044004060030020A02E630030
:1039A000032002F003FCFEE7012002F0FFFBFEE72C
:1039B00070477047FDF7FABE10B594B038216846DD
:1039C000FCF76DFC14210EA8FCF769FC0020FEF743
:1039D00059F8012000900004019002200324CDE951
:1039E00007045521CDE909010821CDE90B100D90FF
:1039F0006846FEF739FB60B90F20CDE90E040020C0
:103A000010901190129004210EA8FEF7E5F90028FD
:103A100001D0FCF7B3FD14B010BD000002480168EE
:103A200041F470010160704788ED00E00148FEF745
:103A300071BF0000C80200202DE9F0430268264B48
:103A4000264D274E274C4FF08049984207D04845D5
:103A500005D0A84203D0B04201D0A04203D122F049
:103A600070074A683A43204FDFF880C0DFF8808053
:103A700098420DD048450BD0A84209D0B04207D09B
:103A8000A04205D0B84203D0604501D0404503D1E3
:103A900022F44075CA682A434D6922F080022A4305
:103AA00002608A68C2620A688262984207D0A042B5
:103AB00005D0B84203D0604501D0404501D1096925
:103AC0000163012141610169C90703D0016921F046
:103AD00001010161BDE8F083002C014000040040B9
:103AE0000008004000340140004001400044014013
:103AF0000048014010B501F01F030121046A9940FC
:103B00008C430462016A9A401143016210BD10B5F2
:103B1000846842EA032224F47F440A4322438260F9
:103B200010BD00008268034B1A400A4342F00701AF
:103B3000816070478FFFCFFF2DE9F043056A026A6D
:103B400022F001020262436882691C4C25F00205E2
:103B500022400C6822F0030214438A68194E2A435B
:103B6000174D194FDFF864C0DFF86490A84207D002
:103B7000B04205D0B84203D0604501D0484506D1D7
:103B800022F00808CA6842EA080222F00402A842A9
:103B900007D0B04205D0B84203D0604501D04845B7
:103BA00005D14D6923F440731D438B692B4343605A
:103BB0008461496841630262BDE8F0838FFFFEFFC4
:103BC000002C01400034014000400140004401400D
:103BD00000480140F0B5056A026A22F01002026254
:103BE00042688369194C1B4E23400C6823F44073D0
:103BF00043EA042425F020038D6843EA0513144D9D
:103C0000A84201D0B04206D1CF6823F0800343EA36
:103C1000071323F04003A8420AD0B04208D00E4D4B
:103C2000A84205D00D4DA84202D00D4DA84207D1A3
:103C30004D6922F4406242EA85028D6942EA8502BA
:103C400042608461496881630362F0BDFF8FFFFEBB
:103C5000002C01400034014000400140004401407C
:103C600000480140F0B5056A026A22F480720262DF
:103C70004368C269194C1B4E22400C6822F00302B3
:103C8000144325F400728D6842EA0522144DA842BF
:103C900001D0B04206D1CF6822F4006242EA072286
:103CA00022F48062A8420AD0B04208D00E4DA84249
:103CB00005D00E4DA84202D00D4DA84207D14D6946
:103CC00023F4405343EA05138D6943EA0513436027
:103CD000C4614968C1630262F0BD00008FFFFEFF4E
:103CE000002C0140003401400040014000440140EC
:103CF00000480140F0B5056A026A22F4805202626F
:103D00004268C369194C1B4E23400C6823F440736E
:103D100043EA042425F400538D6843EA0533144D27
:103D2000A84201D0B04206D1CF6823F4004343EA51
:103D3000073323F48043A8420AD0B04208D00E4D86
:103D4000A84205D00D4DA84202D00D4DA84207D182
:103D50004D6922F4404242EA85128D6942EA851299
:103D60004260C461496801640362F0BDFF8FFFFED9
:103D7000002C01400034014000400140004401405B
:103D80000048014030B5056A026A22F480320262BE
:103D90004268036D114C23400C681C4325F400332A
:103DA0000D8943EA05430E4DA8420BD00D4DA842A4
:103DB00008D00D4DA84205D00C4DA84202D00C4DA4
:103DC000A84204D14D6922F4803242EA05224260C1
:103DD000046549688164036230BD00008FFFFEFF07
:103DE000002C0140003401400040014000440140EB
:103DF0000048014030B5046A026A22F4801202626F
:103E00004268036D114D24F400142B400D6843EA01
:103E100005230D8944EA05540D4DA8420BD00D4DE4
:103E2000A84208D00C4DA84205D00C4DA84202D0A3
:103E30000B4DA84204D14D6922F4802242EA85222A
:103E4000426003654968C164046230BDFF8FFFFEB4
:103E5000002C01400034014000400140004401407A
:103E60000048014010B5036A046A24F001040462AA
:103E7000846924F0F00444EA021423F00A020A439D
:103E80008461026210BD10B5036A046A24F0100454
:103E90000462846923F0A00324F4704444EA0232EB
:103EA00043EA01118261016210BD000030B5416E2C
:103EB000B9B1026891689268C1F342610B4B520F2D
:103EC0009C5CE50003F10804A25CB5FBF2F2A0F8EB
:103ED0006A205A5C615CD200B2FBF1F1A0F8681074
:103EE00030BD0121A0F86A10F8E700000065000865
:103EF00090F82810090706D501684A68836B22F4F8
:103F000000421A434A6090F82810C90706D0016899
:103F10004A68C36A22F400321A434A6090F82810B3
:103F2000890706D501684A68036B22F480321A4378
:103F30004A6090F82810490706D501684A68436B23
:103F400022F480221A434A6090F82810C90606D548
:103F500001688A68C36B22F480521A438A6090F821
:103F60002810890606D501688A68036C22F400527D
:103F70001A438A6090F82810490611D501684A68EA
:103F8000436C22F480121A434A60416CB1F5801FE1
:103F900006D101684A68836C22F4C0021A434A6061
:103FA00090F82810090606D501684A68C06C22F40A
:103FB000002202434A6070472DE9F8430026044678
:103FC000C0F89060FDF7ECFB8046206800684FF079
:103FD000200500076FF07E4713D5434600222904D1
:103FE0002046009700F010FA58B1216851E8000F00
:103FF00020F0800041E80002002AF6D1C4F8885081
:1040000021E020680068400722D5434600224FF493
:1040100080012046009700F0F7F9C8B1216851E807
:10402000000F20F4907041E80002002AF6D12068C9
:10403000083050E8001F21F0010140E80012002A7A
:10404000F5D1C4F88C5084F884600320BDE8F8836F
:10405000C4F88850C4F88C5044F86C6F66602676BB
:104060000020F3E710B5806A0021A0F85E10FEF78B
:1040700033FF10BD70B5846AD4F88800D4F88C5032
:10408000216889684FF00006090606D5212804D169
:10409000A4F85660204600F065F820688068400665
:1040A00006D5222D04D1A4F85E60204600F030F839
:1040B000D4F8900040F01000C4F890002046FEF7BD
:1040C0000BFF70BD10B50146806A09680968890652
:1040D00016D40021A0F856100168083151E8002FCD
:1040E00022F0800241E80023002BF5D1026852E85B
:1040F000001F41F0400142E80013002BF6D110BD33
:10410000FFF7D0F910BD10B5806AFFF7CCF910BDEC
:1041100010B5026852E8001F21F4907142E80013C4
:10412000002BF6D10E4B0268083252E8001F1940EE
:1041300042E80014002CF6D1C16E012908D10168B3
:1041400051E8002F22F0100241E80023002BF6D1A5
:104150002021C0F88C100021C166416710BD00000D
:10416000FEFFFFEF026852E8001F21F0C00142E8A5
:104170000013002BF6D10168083151E8002F22F41A
:10418000000241E80023002BF5D12021C0F888105F
:10419000704700002DE9F0410446016880682269FB
:1041A000E3691043626900251A431043DFF82CC20B
:1041B0000A688B4B1A4002430A6020684168E26833
:1041C00021F44051114341602168A069614501D04B
:1041D000226A10438A68834B1A4002438A6020682F
:1041E000C16A626A21F00F011143C1627E492368EE
:1041F0007E488B420DD1D0F8880010F0030006D025
:10420000012855D0022842D003283FD152E0012096
:104210003DE077498B420BD1D0F8880010F00C00BC
:1042200035D0042833D0082840D00C282ED141E0C6
:1042300070498B420BD1D0F8880010F0300026D0A6
:10424000102835D0202831D030281FD132E06A49DB
:104250008B420BD1D0F8880010F0C00017D0402856
:1042600026D0802822D0C02810D123E063450DD16C
:10427000D0F8880010F4406009D0B0F5806F17D0F6
:10428000B0F5006F12D0B0F5406F13D010205B492D
:104290005B4F00264FF4004263453BD160B10228DA
:1042A00013D004280BD0082872D10DE00220EEE7CD
:1042B0000420ECE70820EAE7FDF77CFE01E0FDF7CB
:1042C0009DFE010001D17CE01146606A37F81020A4
:1042D0006768B1FBF2F007EB4703834270D8B0EB9D
:1042E000073F6DD8002308461946FBF791FF0902E6
:1042F00041EA106102027808101871413A46002321
:10430000FBF786FF3F4AA0F54071914258D82168DB
:10431000C86056E0E3694FF6EF7893422CD1092844
:104320004ED2DFE800F00508114D0D4D4D4D100047
:10433000FDF740FE01E0FDF74FFE010004D140E033
:10434000FDF75CFEF9E71146606A37F81000B1FB33
:10435000F0F04100606801EB5001B1FBF0F0A0F11A
:10436000100141452CD84FF6F0710140C0F34200D6
:1043700001432068C16024E0092821D2DFE800F071
:10438000050912200E2020201100FDF713FE02E087
:1043900016E0FDF721FE010004D112E0FDF72EFE2C
:1043A000F9E71146606A37F81000B1FBF0F1606878
:1043B00001EB5001B1FBF0F0A0F1100141450AD929
:1043C00001250120A4F86A0024F8680F2846E66059
:1043D0002661BDE8F08180B299E7000000800040CE
:1043E000F369FFCFFFF4FF110038014000100240D5
:1043F0000044004000480040004C00400024F4000D
:10440000E8640008FFFC0F002DE9F04799461746C5
:104410000D4604464FF00008089E33E0701C31D072
:10442000FDF7BEF9A0EB0900B04218D8BEB1206874
:104430000168490726D5802D24D0402D22D0C1699E
:10444000C94309070DD4082505622046FFF760FE21
:10445000C4F8905084F884800120BDE8F0870320E0
:10446000FBE7C069C04300050CD421684FF400602D
:1044700008622046FFF74CFE2020C4F8900084F824
:104480008480ECE72068C06935EA000004D0002091
:10449000B842C3D00020E0E70120F9E70148FEF769
:1044A00023BD000060030020052001F07FFEFEE731
:1044B00070B5344C2068002863D06068002860D054
:1044C000A06800285DD0E06800285AD02069002844
:1044D00057D06069002854D02B48FEF7FEFC2028F6
:1044E0004FD12068294D90ED000A294885ED000A3A
:1044F00090ED000A274885ED010A006800EE100AD9
:10450000B8EE400A85ED030A00F010FF00EE100A35
:1045100005F12802111FB8EE400A85ED040AE06893
:104520009FED1D0A008800EE900AF8EE600A60EE2A
:10453000800AC5ED050A2069008800EE900AF8EEB1
:10454000600A60EE800AC5ED060A6069008800EE28
:10455000900A081FF8EE600A20EE800A85ED070A2F
:1045600000F07CFC00F028FD00EE100A2946342201
:10457000B8EE400A044885ED0B0ABDE87040FEF72E
:1045800049BF70BD2005002060030020000000200E
:1045900060000020400000207B8F2F3B0FB4054BB4
:1045A00010B503A9044A029800F08EF810BC5DF81B
:1045B00014FB0000395E00089C0000200907090E6A
:1045C000002804DB00F1E02080F80014704700F0C0
:1045D0000F0000F1E02080F8141D704710B52DED9C
:1045E000028BF0EE408A18EE900AB0EE608A20F05E
:1045F0000040C0F1FF40C00F07D118EE100A20F0B4
:104600000040C0F1FF40C00F2BD018EE101A18EE7A
:10461000900AFBF7ACFE00EE100A10EE100A6FEAEB
:10462000D05010F0FF0F04BFBDEC028B10BD18EE90
:10463000900A00F0004110EE100A00F000408142A4
:1046400004BFBDEC028B10BD18EE101A10EE100A5C
:10465000BDEC028B61F31E0000EE900A30EE600AA2
:1046600010BD18EE900A4FF07F41B1EB400F1CBF18
:1046700018EE100A5FEA4000C7D1012000F01EF8D2
:10468000BDEC028BBDE81040AFF30080DFED020A05
:1046900080EEA00A704700000000000002E008C899
:1046A000121F08C1002AFAD170477047002001E0AC
:1046B00001C1121F002AFBD17047000001490860A8
:1046C00070470000A00000202DE9FF4F89B09B46F5
:1046D0000446002506E025280BD05A460B99904742
:1046E000641C6D1C20780028F5D10DB02846BDE86B
:1046F000F08F0027B8460122474900E0074314F82D
:10470000013F203B02FA03F00842F7D120782E281F
:1047100019D114F8010F47F004072A280ED06FF0C2
:104720002F022078A0F1300109290CD808EB88016C
:1047300002EB410100EB0108641CF2E70A98641CDB
:1047400050F8048B0A9020780028CED0642808D036
:10475000692806D075281ED05A460B9990476D1CC3
:1047600058E00A994FF00A0901C90A91002802DAB3
:1047700040422D2102E0390504D52B218DF820106F
:10478000012103E0F90704D02021F7E78A4608AEAB
:104790000DE00021FAE70A994FF00A0901C90A91D0
:1047A000F7E74946FBF786FD303106F8011D002882
:1047B000F7D1ADEB060000F12009780701D44FF0E6
:1047C0000108C84502DDA8EB090000E00020804692
:1047D000002706E008A85A46C05D0B9990476D1C5B
:1047E0007F1C5745F6DB04E030205A460B99904772
:1047F0006D1CB8F10001A8F10108F5DC05E016F820
:10480000010B5A460B9990476D1CB9F10001A9F1B3
:104810000109F4DC641C65E709280100401AB0F5C1
:10482000004F02DDA0F58030704710F5004FFBDA35
:1048300000F5803070470000064991F82E203AB10B
:1048400008B14A6B0260002081F82E0001207047F9
:1048500000207047480500200249012081F82C0003
:104860007047000048050020154A00239FED150AF7
:104870001380536082ED020AD36013615361936128
:10488000D36182F82030C2E9090182F82C3082F825
:104890002D3082F82E3013860121536382F83810B0
:1048A00082F8393008B180ED000A906A08B180EDD5
:1048B000000A0548006843623C210348FDF7E2BF57
:1048C0004805002000000000140300200448006890
:1048D000416A04480186012180F82D1070470000CC
:1048E000140300204805002000B10120014981F88F
:1048F00038007047480500202DE9F0414C4C2DED63
:10490000028B606A002832D0A06A00282FD094F869
:104910002D00484F9FED488A00250126B0B1208E1A
:104920002188FFF77BFF6168084400F08FF860631F
:1049300084F82E6084F82D5084F8396094F838009B
:1049400020B138684562258065600DE094F82C0040
:10495000002838680FD045622580656084F82C50A7
:1049600084F82E5084F83960606A80ED008ABDECCE
:10497000028BBDE8F081406A218885B22846FFF7A6
:104980004DFF00F500712580B1F5806F00D9002042
:1049900094F82010052204EB8101254FC86094F89B
:1049A0002010491CB1FBF2F302FB131184F8201014
:1049B00057F80C1F5FF001060A460B4657F82650C1
:1049C0002B44954200DA2A468D4200DD2946761CAA
:1049D000F6B2052EF2D39A1A511A00EE101ADFED34
:1049E000170A6168B8EEC00A084420EE208A00F079
:1049F0002DF800EE100ADFED120A6060B8EEC00A72
:104A0000606A9FED111A20EE200A80ED000A9FEDEA
:104A10000D0A68EE000A94ED020A70EEC00A00EE7C
:104A2000810A84ED020AA06A80ED000A9FE7000077
:104A3000480500201403002000000000ABAAAA3E95
:104A4000DB0F493B0060EA430AD7A33CC11700EBE8
:104A500051516FF30A01401A01D500F5006070470B
:104A60009FED1D1AF5EE000A40EE010ABDEEE00AC8
:104A7000F5EEC00A10EE100AF1EE10FA00D2401E58
:104A800000EE100AB8EEC00A30EEC00ADFED130ADD
:104A900020EE200ABCEEC01A11EE100A80B2B0F56A
:104AA000007F02D330EE600A002000EE900A0C492D
:104AB000F7EE001AF8EE600A01EB800090ED011AA3
:104AC00070EE600A90ED000A71EEE01A21EE800AA5
:104AD00000EE810A7047000083F9223E0000004486
:104AE00028650008DFED1C0A20EE200AFDEEC00A52
:104AF000B5EEC00A10EE900AF1EE10FA00D2401E98
:104B000000EE900AF8EEE00A30EE600ADFED130ADC
:104B100020EE200ABCEEC01A11EE100A80B2B0F5E9
:104B2000007F02D330EE600A002000EE900A0C49AC
:104B3000F7EE001AF8EE600A01EB800090ED011A22
:104B400070EE600A90ED000A71EEE01A21EE800A24
:104B500000EE810A7047000083F9223E0000004405
:104B600028650008F0B55D4889B0006841685C4A76
:104B7000114041605B4C94F8490000281ED1206A26
:104B8000401C206200F0F2FA5748C17889B1817860
:104B900079B14FF0A0421168C1F3801159B14021A1
:104BA000116011684FF48063C1F380254F4955B9F6
:104BB00005E00D2000E00E2000F02CF98BE00D68E0
:104BC000C5F380251DB113600B600F20F4E7D2F808
:104BD0008010D2F8802189B292B2E1802281002532
:104BE000857084F84D5094F84860012E23D094F8D5
:104BF0004850022D40D00379002B6CD0A38807AF1A
:104C000006AE05AD0DF1040C8CE8E8006388009356
:104C10002388407800F03AFA9DED050A012084EDE2
:104C2000030A9DED060A84ED040A9DED070A84ED52
:104C3000050A09B0F0BD46780EB11020BCE7C66881
:104C40000E44C66001690A4402618169491C8161A0
:104C5000A16199423FD3B10A2180910A618002216A
:104C60008561017084F848100A2184F84A10A56112
:104C7000007884F84C002EE04278022A01D01120FE
:104C80009AE742690A4442618169491C8161A161D4
:104C9000994220D3910AA18021884FF40062914269
:104CA00010D323884FF440618B420BD86388934222
:104CB00008D363888B4205D8A388934202D3A28885
:104CC0008A4201D9142077E701210171032004F8F9
:104CD000480F0B20A0700020ABE70000C8020020A6
:104CE0008FFFFFFD840500208000002000010050A0
:104CF0002DE9F0411A4C0646E07800282ED01948DC
:104D00000068416C21F4004141640021E1602161AF
:104D10006161A16121708020A060134D012085F8A0
:104D20004800092085F84A00A961207885F84C00E0
:104D3000FCF736FD074608E0FCF732FDC01BB04229
:104D400003D30C2000F066F807E095F8480001282E
:104D5000F2D095F848000228EED02079BDE8F08125
:104D600080000020C8020020840500202DE9F041C9
:104D7000254E264C354604E0876827407F1C876017
:104D80006D1E076817F0010F0BD065B181682140D7
:104D900041F0080181608168214041F0200181607B
:104DA00004E0002DE8D108461CE0761E8168C1F3BE
:104DB000401111B1002EF8D119E0C6B1C16C21F437
:104DC000C07141F08001C1648168214041F0080157
:104DD0008160C1680E4A114041F40011C160C16C8C
:104DE00039B1184600F016F80020BDE8F0811046F1
:104DF000F8E7016B21F00F01016381682140091D73
:104E000081600120F1E70000A0860100C0FFFF7F64
:104E1000FFFFDF7F10B50D4C94F8491019B984F8E5
:104E2000490000F0A3F90A490020087184F84800FD
:104E300008490868002808D0426C22F40042426405
:104E400008684168044A1140416010BD8405002093
:104E500080000020C80200208FFFFFFD084B18B122
:104E600093ED030A80ED000A19B193ED040A81ED78
:104E7000000A002A03D093ED050A82ED000A70476C
:104E8000840500202DE9F04150214148FBF707FA45
:104E9000404D0020287068708021A960A870E870DB
:104EA00028713B4C84F8480084F8490084F84A0093
:104EB000687884F84B00287884F84C00012684F840
:104EC0004A603548FCF7C8FD08B1012027E0022000
:104ED00084F84A003148FCF7BFFD08B102201EE00B
:104EE000032084F84A002E48FCF7B6FD08B10320E1
:104EF00015E00120FCF7C2FA042084F84A007F2163
:104F00002848FBF741FB08B1042008E0052084F89D
:104F10004A007F212448FBF737FB28B10520FFF723
:104F200079FF0020BDE8F081062084F84A000146A0
:104F30004FF0A0480A2308224046FFF717FF002839
:104F4000F0D0072084F84A00184F01460B230922AD
:104F50003846FFF70BFF0028E4D04021C8F80010C6
:104F600039600901C8F800103960786840F04000E5
:104F700078600F48006841680E4A11404160EE7049
:104F8000082084F84A0000F0F1F80120CAE7000088
:104F90008405002080000020140200205002002020
:104FA0008C0200203C010020A801002000010050DC
:104FB000C80200208FFFFFFD014800797047000004
:104FC000800000204FF4785202EA402001F4C071C2
:104FD0000843704730B42A4D85F84E30294C237968
:104FE000002B4BD00023884201D191420AD0884245
:104FF00003D3904201D3022304E0814202D39142C1
:1050000000D301232370237885F84C300B4681426E
:1050100001D903460846824202D90346104602E0FF
:105020009A4200D913464FF4A65290421FD8934299
:105030001DD88021A160C0F5A651B1F5957F01D999
:10504000501E18E0C31AB3EB410F03D929280ED91B
:10505000293809E000F59570904205D34FF480712E
:10506000A16042F67F11081A08B1904203D330BC08
:105070001520FFF7CFBE04490968086430BC7047AB
:105080008405002080000020C802002070B5DFEDFC
:10509000350ADDE90754069EDDED052A9DED042A5B
:1050A000DFED311AB0EE601AB0EE600A20B10128CF
:1050B0001DD002284ED135E000EE103AF8EE400A3D
:1050C00000EE101AB8EE400A30EEC00AF8EE420ABE
:1050D00020EE211A00EE102AB8EE400A30EEC00A87
:1050E00060EE210A31EE200AB1EE400A32E000EE15
:1050F000103AF8EE400A00EE101AB8EE400A30EE10
:10510000C00AF8EE620A20EE211A00EE102AB8EE6C
:10511000400A30EEC00A20EE210A71EE000AF1EEDC
:10512000600A17E000EE101AF8EE620AB8EE421AB2
:10513000B8EE400A30EEC00A00EE902AF8EE600A9F
:1051400020EE210A71EE600A60EEA10A30EE801AAC
:10515000B1EE411A86ED001AC5ED000A84ED000A91
:1051600070BD000000000000A776F13C4FF0A041A8
:105170000A6810488262D1F80021C262CA6C0263D8
:10518000D1F84C2142638A688263D1F80811C16367
:10519000094909684A6A02640968416407494A780A
:1051A00080F84B200A7880F84C20897880F84D10E0
:1051B0007047000084050020C80200208000002005
:1051C0002DE9F041DFF8E480D8F800004168384A62
:1051D00011404160374D95F8490000285ED1E869DB
:1051E000401CE861FFF7C2FF334CE078002855D03F
:1051F000207938B995F84800012803D095F848007F
:1052000002284BD1A0784FF0A0460028F06C0CD0BB
:1052100010B9D6F84C0108B1122014E0686A401C9D
:105220006862BDE8F041FFF7A1BF0028F4D1D6F8CD
:105230004C010028F0D12178204841B1012908D043
:1052400002292DD01320BDE8F041FFF7E3BD032272
:1052500027E003220168122741F480710160A168F0
:105260001046FFF7AFFEF064A1683846FFF7AAFECC
:10527000C6F84C01207860700120A070617805F8B4
:105280004B1F21786970A8708020A060D8F80000BA
:10529000416821F0007141F070014160BDE8F0818A
:1052A0000C220168032721F48071D7E7C80200208F
:1052B0008FFFFFFD840500208000002008030140CF
:1052C00000F008B808B56846FFF7B6FA0028FAD12A
:1052D00008BD00009FED0E0A10B5B0EE401AF0EECA
:1052E000400A00F031FB00F09BFB032000F08CFC37
:1052F00008490020087008480721017007490B7809
:10530000027807480178BDE81040102001F066B827
:105310000000000038050020700000206A00002016
:1053200069000020004870473805002001480078D7
:1053300070470000700000200948017803290DD053
:10534000017801290AD00178022907D001780429BF
:1053500004D00078052801D0002070470120704754
:1053600070000020014800787047000038050020D8
:105370000749C968401AC82809D200EE900ADFED33
:10538000051AB8EE601AC1EE210A20EE800A7047B5
:10539000700000200000484310B52DED028BFFF790
:1053A0000BFE78B31C480021FF22017042709FED74
:1053B0001B8A416080ED028A80ED038AFFF782FF3D
:1053C0000120FFF791FAFCF7EBF9154CE0600120A2
:1053D0002070B0EE481AF0EE480AB0EE480A00F02D
:1053E000B3FA022000F010FC0E48037822780E4831
:1053F00001780A2000F0F2FFBDEC028BBDE81040FE
:1054000000F0E0BA012000F099FBBDEC028BBDE892
:105410001040FFF75FBF00003805002000000000CB
:10542000700000206A00002069000020F0B52DED1A
:10543000028B81B0FCF7B4F90546FFF7BDFD20B93A
:10544000FFF77AFF08B10120CBE0694C2078694E64
:10545000694F9FED6A8A082878D2DFE800F01D04C2
:10546000213656781D1DE068281A0A2814D300F04A
:10547000D7FAB0EE480AB0EE401AF0EE400A00F05B
:1054800063FA0220E56020703378227839780B20A7
:1054900000F0A4FF00F0E4FA01B0BDEC028BF0BD17
:1054A000B0EE480AB0EE401AF0EE400A00F04CFAB6
:1054B000E068281AB0F5FA6FEED30320E56020709B
:1054C0003378227839780C201CE094ED010A2846C4
:1054D000FFF74EFFF0EE400AB0EE480AB0EE401A79
:1054E00000F032FAE068281AB0F5487FD4D3FFF70D
:1054F000E9FEFFF7B1F90420E560207033782278E7
:1055000039780D2000F06AFFC6E7B0EE480AD4ED06
:10551000010AB0EE401A00F017FAE068281A1428C1
:10552000BAD3FFF7CFFE0120FFF7DEF9F0EE480A0D
:10553000B3EE040AB0EE601A00F030FA0520E56020
:1055400020703378227839780E20DBE74EE094ED36
:10555000020A2846FFF70CFFB0EE401AF0EE480AA8
:10556000B3EE040A00F01AFA6846FFF765F980B353
:10557000234D9DED000ADFED230A85ED010AB8EE0B
:10558000C00A20EE200A00F085FC1F4885ED020AC3
:10559000D0ED000A20EEC00A00F07CFC85ED030A85
:1055A000B0EE480A01202870B0EE401AF0EE400A32
:1055B00000F0CAF9012000F0CDFA00F031FA002025
:1055C00000F022FB062020703378227839780F20F3
:1055D00098E7FFE7E06842F21071281A884293D3F7
:1055E000042000F0ABFAFFF775FE55E70520F8E759
:1055F000700000206A000020690000200000000008
:1056000038050020DB0F493B0405002010B51F487A
:1056100000212DED028B9FED1C8A80ED008A80ED2C
:10562000018A80ED028A80ED038A80ED048A80ED94
:10563000058A80ED068AC16101844184818480F8F5
:10564000261080F8271080F8281080F8291080F89C
:105650002A10A0F1240484ED030AB0EE600A00F0E1
:10566000B7FA84ED058A84ED068AB6EE000A00F0EA
:10567000D9FB84ED018A84ED008A84ED078A84EDEC
:10568000088ABDEC028B10BD00000000D804002089
:10569000FEB5054602AA01A9684600F0B7F89DEDDF
:1056A000002ADDED011AB0EEC20AF0EEE10AF4EED6
:1056B000C00AF1EE10FA01DDB0EE600ADDED022A5B
:1056C000F0EEE20AF4EEC00AF1EE10FA01DDB0EEFF
:1056D000600A022D1BD03548D0ED030AB0EE601AE7
:1056E000334C84ED000A84ED021AC4ED030A94EDF4
:1056F000013AB4EEC03AF1EE10FA01D284ED010A9B
:10570000B4EEE00AF1EE10FA08DD012607E0F7EE4C
:10571000080AB0EE601AF0EE080AE1E70026B4EEDF
:10572000C10AF1EE10FA09DD208C4FF6FF718842B4
:1057300002D2208C401C208416B106E00020FAE73B
:10574000208C082801D20120FEBD84ED042A1948CE
:10575000C4ED051AC4ED062A0068E061164FF8880A
:1057600060843889A0841034FFF7E0FDE0751348A9
:105770000078207697F84B006076A6769FED100AA9
:10578000F0EE400A00F0ECF9022D09D0032000F001
:10579000D5F900F045F9032000F036FA0020FEBDEF
:1057A000022000F0CBF9FFF78BFDF7E7040500209E
:1057B000D8040020242C014084050020690000202A
:1057C0000000000010B5FFF7ADFD0E49B0B1027842
:1057D000A2B190F90120D1ED030A00EE102A0A4986
:1057E000B8EEC00A91ED001A60EE200A90ED030AAF
:1057F000BDE8104000EE810A00F04CBB91ED000ABC
:1058000010BD0000B404002060000020FFF726BB9C
:1058100001484078704700006B00002070B500F030
:1058200067F81648F2EE040A90ED000AFFF7EEFE64
:105830009FED130A00F0F6FA00F042F81149081F34
:10584000FFF712F8104D002068706E1E3070FFF7E1
:1058500019FB032448B100F089FA4FF4FA70FFF7FE
:1058600047FA002808D100F0DBF86C703470BDE80E
:105870007040012000F062B970BD000004050020F6
:1058800000000000640000206B00002010EE100AF1
:105890000849DFED070A884202DDB0EE600A704772
:1058A00010EE100A04498842F9D99FED040A7047A6
:1058B0007B7303417B7303417B7303C17B7303C120
:1058C0000948084901601431416008318160074985
:1058D000096801F13402C260121D3C31C0E90421A3
:1058E00070470000B404002020050020C8020020FA
:1058F0000E48B1EE080A80ED000A9FED0D0A80ED1A
:10590000010A9FED0C0A80ED020A9FED0B0A80ED63
:10591000030A9FED0A0A80ED040A9FED090A80ED53
:10592000050A9FED080A80ED060A7047040500206D
:10593000CDCCCC3DACC5A7376666A64014AE63415E
:105940006666663F0088424610B52DED028BB0EECC
:10595000418AF0EE608A00F09DFA0D480E4980ED14
:10596000000AD0ED030AC0EE201A9FED0A0AF0EEFD
:10597000480AC0ED011A80ED020A00200870B0EE5E
:10598000680ABDEC028BBDE8104000F0E9B80000E9
:10599000B4040020000000005C00002010B5F0EE10
:1059A000411AB0EE602A00F013F905490020F0EE2C
:1059B000610A0870BDE81040B0EE420A00F0D0B8AD
:1059C0005C00002010B5FFF7F7FA00281ED0104841
:1059D0000378104802780121042000F0FFFC0E4CEF
:1059E0002068416C21F40041416400F067F82068B0
:1059F000016A40F25552114301622068416C41F442
:105A000000414164054901200870487010BD000044
:105A10006A00002070000020C802002068000020FA
:105A20000B4810B503780B4802780B4C61780320C3
:105A300000F0D4FC09480068416C21F40041416445
:105A4000002020706070BDE8104000F057B80000E2
:105A50006A0000207000002068000020C8020020BA
:105A600010B5FFF7A9FA00281FD010480378104896
:105A700002780221052000F0B1FC0E4C2068416C38
:105A800021F40041416400F039F82068016A40F2D5
:105A90005552114301622068416C41F40041416458
:105AA0000548012101700221417010BD6A000020EB
:105AB00070000020C8020020680000200E48016825
:105AC0008B6940F6080293438B610168CB6923F030
:105AD0000803CB6103680021596303689963036875
